{
	"contracts/Lottery.sol": {
		"Lottery": {
			"abi": [
				{
					"inputs": [],
					"stateMutability": "nonpayable",
					"type": "constructor"
				},
				{
					"inputs": [],
					"name": "claimPrize",
					"outputs": [],
					"stateMutability": "nonpayable",
					"type": "function"
				},
				{
					"inputs": [],
					"name": "claimed",
					"outputs": [
						{
							"internalType": "bool",
							"name": "",
							"type": "bool"
						}
					],
					"stateMutability": "view",
					"type": "function"
				},
				{
					"inputs": [],
					"name": "enter",
					"outputs": [],
					"stateMutability": "payable",
					"type": "function"
				},
				{
					"inputs": [],
					"name": "getManager",
					"outputs": [
						{
							"internalType": "address",
							"name": "",
							"type": "address"
						}
					],
					"stateMutability": "view",
					"type": "function"
				},
				{
					"inputs": [],
					"name": "getPlayers",
					"outputs": [
						{
							"internalType": "address payable[]",
							"name": "",
							"type": "address[]"
						}
					],
					"stateMutability": "view",
					"type": "function"
				},
				{
					"inputs": [],
					"name": "getWinner",
					"outputs": [
						{
							"internalType": "address",
							"name": "",
							"type": "address"
						}
					],
					"stateMutability": "view",
					"type": "function"
				},
				{
					"inputs": [],
					"name": "isComplete",
					"outputs": [
						{
							"internalType": "bool",
							"name": "",
							"type": "bool"
						}
					],
					"stateMutability": "view",
					"type": "function"
				},
				{
					"inputs": [],
					"name": "manager",
					"outputs": [
						{
							"internalType": "address",
							"name": "",
							"type": "address"
						}
					],
					"stateMutability": "view",
					"type": "function"
				},
				{
					"inputs": [],
					"name": "pickWinner",
					"outputs": [],
					"stateMutability": "nonpayable",
					"type": "function"
				},
				{
					"inputs": [
						{
							"internalType": "uint256",
							"name": "",
							"type": "uint256"
						}
					],
					"name": "players",
					"outputs": [
						{
							"internalType": "address payable",
							"name": "",
							"type": "address"
						}
					],
					"stateMutability": "view",
					"type": "function"
				},
				{
					"inputs": [],
					"name": "resetLottery",
					"outputs": [],
					"stateMutability": "nonpayable",
					"type": "function"
				},
				{
					"inputs": [],
					"name": "status",
					"outputs": [
						{
							"internalType": "bool",
							"name": "",
							"type": "bool"
						}
					],
					"stateMutability": "view",
					"type": "function"
				}
			],
			"devdoc": {
				"kind": "dev",
				"methods": {},
				"version": 1
			},
			"evm": {
				"assembly": "    /* \"contracts/Lottery.sol\":57:2043  contract Lottery {... */\n  mstore(0x40, 0x80)\n    /* \"contracts/Lottery.sol\":232:336  constructor() {... */\n  callvalue\n  dup1\n  iszero\n  tag_1\n  jumpi\n  0x00\n  dup1\n  revert\ntag_1:\n  pop\n    /* \"contracts/Lottery.sol\":266:276  msg.sender */\n  caller\n    /* \"contracts/Lottery.sol\":256:263  manager */\n  0x00\n  dup1\n    /* \"contracts/Lottery.sol\":256:276  manager = msg.sender */\n  0x0100\n  exp\n  dup2\n  sload\n  dup2\n  0xffffffffffffffffffffffffffffffffffffffff\n  mul\n  not\n  and\n  swap1\n  dup4\n  0xffffffffffffffffffffffffffffffffffffffff\n  and\n  mul\n  or\n  swap1\n  sstore\n  pop\n    /* \"contracts/Lottery.sol\":299:304  false */\n  0x00\n    /* \"contracts/Lottery.sol\":286:296  isComplete */\n  0x02\n  0x14\n    /* \"contracts/Lottery.sol\":286:304  isComplete = false */\n  0x0100\n  exp\n  dup2\n  sload\n  dup2\n  0xff\n  mul\n  not\n  and\n  swap1\n  dup4\n  iszero\n  iszero\n  mul\n  or\n  swap1\n  sstore\n  pop\n    /* \"contracts/Lottery.sol\":324:329  false */\n  0x00\n    /* \"contracts/Lottery.sol\":314:321  claimed */\n  0x02\n  0x15\n    /* \"contracts/Lottery.sol\":314:329  claimed = false */\n  0x0100\n  exp\n  dup2\n  sload\n  dup2\n  0xff\n  mul\n  not\n  and\n  swap1\n  dup4\n  iszero\n  iszero\n  mul\n  or\n  swap1\n  sstore\n  pop\n    /* \"contracts/Lottery.sol\":57:2043  contract Lottery {... */\n  dataSize(sub_0)\n  dup1\n  dataOffset(sub_0)\n  0x00\n  codecopy\n  0x00\n  return\nstop\n\nsub_0: assembly {\n        /* \"contracts/Lottery.sol\":57:2043  contract Lottery {... */\n      mstore(0x40, 0x80)\n      jumpi(tag_1, lt(calldatasize, 0x04))\n      shr(0xe0, calldataload(0x00))\n      dup1\n      0xb2fa1c9e\n      gt\n      tag_14\n      jumpi\n      dup1\n      0xb2fa1c9e\n      eq\n      tag_8\n      jumpi\n      dup1\n      0xd337616e\n      eq\n      tag_9\n      jumpi\n      dup1\n      0xd5009584\n      eq\n      tag_10\n      jumpi\n      dup1\n      0xe834a834\n      eq\n      tag_11\n      jumpi\n      dup1\n      0xe97dcb62\n      eq\n      tag_12\n      jumpi\n      dup1\n      0xf71d96cb\n      eq\n      tag_13\n      jumpi\n      jump(tag_1)\n    tag_14:\n      dup1\n      0x200d2ed2\n      eq\n      tag_2\n      jumpi\n      dup1\n      0x481c6a75\n      eq\n      tag_3\n      jumpi\n      dup1\n      0x5d495aea\n      eq\n      tag_4\n      jumpi\n      dup1\n      0x70740ac9\n      eq\n      tag_5\n      jumpi\n      dup1\n      0x8b5b9ccc\n      eq\n      tag_6\n      jumpi\n      dup1\n      0x8e7ea5b2\n      eq\n      tag_7\n      jumpi\n    tag_1:\n      0x00\n      dup1\n      revert\n        /* \"contracts/Lottery.sol\":604:683  function status() public view returns (bool) {... */\n    tag_2:\n      callvalue\n      dup1\n      iszero\n      tag_15\n      jumpi\n      0x00\n      dup1\n      revert\n    tag_15:\n      pop\n      tag_16\n      tag_17\n      jump\t// in\n    tag_16:\n      mload(0x40)\n      tag_18\n      swap2\n      swap1\n      tag_19\n      jump\t// in\n    tag_18:\n      mload(0x40)\n      dup1\n      swap2\n      sub\n      swap1\n      return\n        /* \"contracts/Lottery.sol\":80:102  address public manager */\n    tag_3:\n      callvalue\n      dup1\n      iszero\n      tag_20\n      jumpi\n      0x00\n      dup1\n      revert\n    tag_20:\n      pop\n      tag_21\n      tag_22\n      jump\t// in\n    tag_21:\n      mload(0x40)\n      tag_23\n      swap2\n      swap1\n      tag_24\n      jump\t// in\n    tag_23:\n      mload(0x40)\n      dup1\n      swap2\n      sub\n      swap1\n      return\n        /* \"contracts/Lottery.sol\":858:1058  function pickWinner() public restricted {... */\n    tag_4:\n      callvalue\n      dup1\n      iszero\n      tag_25\n      jumpi\n      0x00\n      dup1\n      revert\n    tag_25:\n      pop\n      tag_26\n      tag_27\n      jump\t// in\n    tag_26:\n      stop\n        /* \"contracts/Lottery.sol\":1068:1244  function claimPrize() public {... */\n    tag_5:\n      callvalue\n      dup1\n      iszero\n      tag_28\n      jumpi\n      0x00\n      dup1\n      revert\n    tag_28:\n      pop\n      tag_29\n      tag_30\n      jump\t// in\n    tag_29:\n      stop\n        /* \"contracts/Lottery.sol\":1254:1354  function getPlayers() public view returns (address payable[] memory) {... */\n    tag_6:\n      callvalue\n      dup1\n      iszero\n      tag_31\n      jumpi\n      0x00\n      dup1\n      revert\n    tag_31:\n      pop\n      tag_32\n      tag_33\n      jump\t// in\n    tag_32:\n      mload(0x40)\n      tag_34\n      swap2\n      swap1\n      tag_35\n      jump\t// in\n    tag_34:\n      mload(0x40)\n      dup1\n      swap2\n      sub\n      swap1\n      return\n        /* \"contracts/Lottery.sol\":517:598  function getWinner() public view returns (address) {... */\n    tag_7:\n      callvalue\n      dup1\n      iszero\n      tag_36\n      jumpi\n      0x00\n      dup1\n      revert\n    tag_36:\n      pop\n      tag_37\n      tag_38\n      jump\t// in\n    tag_37:\n      mload(0x40)\n      tag_39\n      swap2\n      swap1\n      tag_24\n      jump\t// in\n    tag_39:\n      mload(0x40)\n      dup1\n      swap2\n      sub\n      swap1\n      return\n        /* \"contracts/Lottery.sol\":174:196  bool public isComplete */\n    tag_8:\n      callvalue\n      dup1\n      iszero\n      tag_40\n      jumpi\n      0x00\n      dup1\n      revert\n    tag_40:\n      pop\n      tag_41\n      tag_42\n      jump\t// in\n    tag_41:\n      mload(0x40)\n      tag_43\n      swap2\n      swap1\n      tag_19\n      jump\t// in\n    tag_43:\n      mload(0x40)\n      dup1\n      swap2\n      sub\n      swap1\n      return\n        /* \"contracts/Lottery.sol\":1589:2040  function resetLottery() public restricted {... */\n    tag_9:\n      callvalue\n      dup1\n      iszero\n      tag_44\n      jumpi\n      0x00\n      dup1\n      revert\n    tag_44:\n      pop\n      tag_45\n      tag_46\n      jump\t// in\n    tag_45:\n      stop\n        /* \"contracts/Lottery.sol\":428:511  function getManager() public view returns (address) {... */\n    tag_10:\n      callvalue\n      dup1\n      iszero\n      tag_47\n      jumpi\n      0x00\n      dup1\n      revert\n    tag_47:\n      pop\n      tag_48\n      tag_49\n      jump\t// in\n    tag_48:\n      mload(0x40)\n      tag_50\n      swap2\n      swap1\n      tag_24\n      jump\t// in\n    tag_50:\n      mload(0x40)\n      dup1\n      swap2\n      sub\n      swap1\n      return\n        /* \"contracts/Lottery.sol\":202:221  bool public claimed */\n    tag_11:\n      callvalue\n      dup1\n      iszero\n      tag_51\n      jumpi\n      0x00\n      dup1\n      revert\n    tag_51:\n      pop\n      tag_52\n      tag_53\n      jump\t// in\n    tag_52:\n      mload(0x40)\n      tag_54\n      swap2\n      swap1\n      tag_19\n      jump\t// in\n    tag_54:\n      mload(0x40)\n      dup1\n      swap2\n      sub\n      swap1\n      return\n        /* \"contracts/Lottery.sol\":693:848  function enter() public payable {... */\n    tag_12:\n      tag_55\n      tag_56\n      jump\t// in\n    tag_55:\n      stop\n        /* \"contracts/Lottery.sol\":108:140  address payable[] public players */\n    tag_13:\n      callvalue\n      dup1\n      iszero\n      tag_57\n      jumpi\n      0x00\n      dup1\n      revert\n    tag_57:\n      pop\n      tag_58\n      0x04\n      dup1\n      calldatasize\n      sub\n      dup2\n      add\n      swap1\n      tag_59\n      swap2\n      swap1\n      tag_60\n      jump\t// in\n    tag_59:\n      tag_61\n      jump\t// in\n    tag_58:\n      mload(0x40)\n      tag_62\n      swap2\n      swap1\n      tag_63\n      jump\t// in\n    tag_62:\n      mload(0x40)\n      dup1\n      swap2\n      sub\n      swap1\n      return\n        /* \"contracts/Lottery.sol\":604:683  function status() public view returns (bool) {... */\n    tag_17:\n        /* \"contracts/Lottery.sol\":643:647  bool */\n      0x00\n        /* \"contracts/Lottery.sol\":666:676  isComplete */\n      0x02\n      0x14\n      swap1\n      sload\n      swap1\n      0x0100\n      exp\n      swap1\n      div\n      0xff\n      and\n        /* \"contracts/Lottery.sol\":659:676  return isComplete */\n      swap1\n      pop\n        /* \"contracts/Lottery.sol\":604:683  function status() public view returns (bool) {... */\n      swap1\n      jump\t// out\n        /* \"contracts/Lottery.sol\":80:102  address public manager */\n    tag_22:\n      0x00\n      dup1\n      sload\n      swap1\n      0x0100\n      exp\n      swap1\n      div\n      0xffffffffffffffffffffffffffffffffffffffff\n      and\n      dup2\n      jump\t// out\n        /* \"contracts/Lottery.sol\":858:1058  function pickWinner() public restricted {... */\n    tag_27:\n        /* \"contracts/Lottery.sol\":396:403  manager */\n      0x00\n      dup1\n      sload\n      swap1\n      0x0100\n      exp\n      swap1\n      div\n      0xffffffffffffffffffffffffffffffffffffffff\n      and\n        /* \"contracts/Lottery.sol\":382:403  msg.sender == manager */\n      0xffffffffffffffffffffffffffffffffffffffff\n      and\n        /* \"contracts/Lottery.sol\":382:392  msg.sender */\n      caller\n        /* \"contracts/Lottery.sol\":382:403  msg.sender == manager */\n      0xffffffffffffffffffffffffffffffffffffffff\n      and\n      eq\n        /* \"contracts/Lottery.sol\":374:404  require(msg.sender == manager) */\n      tag_66\n      jumpi\n      0x00\n      dup1\n      revert\n    tag_66:\n        /* \"contracts/Lottery.sol\":933:934  0 */\n      0x00\n        /* \"contracts/Lottery.sol\":916:923  players */\n      0x01\n        /* \"contracts/Lottery.sol\":916:930  players.length */\n      dup1\n      sload\n      swap1\n      pop\n        /* \"contracts/Lottery.sol\":916:934  players.length > 0 */\n      gt\n        /* \"contracts/Lottery.sol\":908:935  require(players.length > 0) */\n      tag_68\n      jumpi\n      0x00\n      dup1\n      revert\n    tag_68:\n        /* \"contracts/Lottery.sol\":954:964  isComplete */\n      0x02\n      0x14\n      swap1\n      sload\n      swap1\n      0x0100\n      exp\n      swap1\n      div\n      0xff\n      and\n        /* \"contracts/Lottery.sol\":953:964  !isComplete */\n      iszero\n        /* \"contracts/Lottery.sol\":945:965  require(!isComplete) */\n      tag_69\n      jumpi\n      0x00\n      dup1\n      revert\n    tag_69:\n        /* \"contracts/Lottery.sol\":984:991  players */\n      0x01\n        /* \"contracts/Lottery.sol\":1009:1016  players */\n      dup1\n        /* \"contracts/Lottery.sol\":1009:1023  players.length */\n      dup1\n      sload\n      swap1\n      pop\n        /* \"contracts/Lottery.sol\":992:1006  randomNumber() */\n      tag_70\n        /* \"contracts/Lottery.sol\":992:1004  randomNumber */\n      tag_71\n        /* \"contracts/Lottery.sol\":992:1006  randomNumber() */\n      jump\t// in\n    tag_70:\n        /* \"contracts/Lottery.sol\":992:1023  randomNumber() % players.length */\n      tag_72\n      swap2\n      swap1\n      tag_73\n      jump\t// in\n    tag_72:\n        /* \"contracts/Lottery.sol\":984:1024  players[randomNumber() % players.length] */\n      dup2\n      sload\n      dup2\n      lt\n      tag_74\n      jumpi\n      tag_75\n      tag_76\n      jump\t// in\n    tag_75:\n    tag_74:\n      swap1\n      0x00\n      mstore\n      keccak256(0x00, 0x20)\n      add\n      0x00\n      swap1\n      sload\n      swap1\n      0x0100\n      exp\n      swap1\n      div\n      0xffffffffffffffffffffffffffffffffffffffff\n      and\n        /* \"contracts/Lottery.sol\":975:981  winner */\n      0x02\n      0x00\n        /* \"contracts/Lottery.sol\":975:1024  winner = players[randomNumber() % players.length] */\n      0x0100\n      exp\n      dup2\n      sload\n      dup2\n      0xffffffffffffffffffffffffffffffffffffffff\n      mul\n      not\n      and\n      swap1\n      dup4\n      0xffffffffffffffffffffffffffffffffffffffff\n      and\n      mul\n      or\n      swap1\n      sstore\n      pop\n        /* \"contracts/Lottery.sol\":1047:1051  true */\n      0x01\n        /* \"contracts/Lottery.sol\":1034:1044  isComplete */\n      0x02\n      0x14\n        /* \"contracts/Lottery.sol\":1034:1051  isComplete = true */\n      0x0100\n      exp\n      dup2\n      sload\n      dup2\n      0xff\n      mul\n      not\n      and\n      swap1\n      dup4\n      iszero\n      iszero\n      mul\n      or\n      swap1\n      sstore\n      pop\n        /* \"contracts/Lottery.sol\":858:1058  function pickWinner() public restricted {... */\n      jump\t// out\n        /* \"contracts/Lottery.sol\":1068:1244  function claimPrize() public {... */\n    tag_30:\n        /* \"contracts/Lottery.sol\":1129:1135  winner */\n      0x02\n      0x00\n      swap1\n      sload\n      swap1\n      0x0100\n      exp\n      swap1\n      div\n      0xffffffffffffffffffffffffffffffffffffffff\n      and\n        /* \"contracts/Lottery.sol\":1115:1135  msg.sender == winner */\n      0xffffffffffffffffffffffffffffffffffffffff\n      and\n        /* \"contracts/Lottery.sol\":1115:1125  msg.sender */\n      caller\n        /* \"contracts/Lottery.sol\":1115:1135  msg.sender == winner */\n      0xffffffffffffffffffffffffffffffffffffffff\n      and\n      eq\n        /* \"contracts/Lottery.sol\":1107:1136  require(msg.sender == winner) */\n      tag_79\n      jumpi\n      0x00\n      dup1\n      revert\n    tag_79:\n        /* \"contracts/Lottery.sol\":1154:1164  isComplete */\n      0x02\n      0x14\n      swap1\n      sload\n      swap1\n      0x0100\n      exp\n      swap1\n      div\n      0xff\n      and\n        /* \"contracts/Lottery.sol\":1146:1165  require(isComplete) */\n      tag_80\n      jumpi\n      0x00\n      dup1\n      revert\n    tag_80:\n        /* \"contracts/Lottery.sol\":1175:1181  winner */\n      0x02\n      0x00\n      swap1\n      sload\n      swap1\n      0x0100\n      exp\n      swap1\n      div\n      0xffffffffffffffffffffffffffffffffffffffff\n      and\n        /* \"contracts/Lottery.sol\":1175:1190  winner.transfer */\n      0xffffffffffffffffffffffffffffffffffffffff\n      and\n        /* \"contracts/Lottery.sol\":1175:1213  winner.transfer(address(this).balance) */\n      0x08fc\n        /* \"contracts/Lottery.sol\":1191:1212  address(this).balance */\n      selfbalance\n        /* \"contracts/Lottery.sol\":1175:1213  winner.transfer(address(this).balance) */\n      swap1\n      dup2\n      iszero\n      mul\n      swap1\n      mload(0x40)\n      0x00\n      mload(0x40)\n      dup1\n      dup4\n      sub\n      dup2\n      dup6\n      dup9\n      dup9\n      call\n      swap4\n      pop\n      pop\n      pop\n      pop\n      iszero\n      dup1\n      iszero\n      tag_82\n      jumpi\n      returndatasize\n      0x00\n      dup1\n      returndatacopy\n      revert(0x00, returndatasize)\n    tag_82:\n      pop\n        /* \"contracts/Lottery.sol\":1233:1237  true */\n      0x01\n        /* \"contracts/Lottery.sol\":1223:1230  claimed */\n      0x02\n      0x15\n        /* \"contracts/Lottery.sol\":1223:1237  claimed = true */\n      0x0100\n      exp\n      dup2\n      sload\n      dup2\n      0xff\n      mul\n      not\n      and\n      swap1\n      dup4\n      iszero\n      iszero\n      mul\n      or\n      swap1\n      sstore\n      pop\n        /* \"contracts/Lottery.sol\":1068:1244  function claimPrize() public {... */\n      jump\t// out\n        /* \"contracts/Lottery.sol\":1254:1354  function getPlayers() public view returns (address payable[] memory) {... */\n    tag_33:\n        /* \"contracts/Lottery.sol\":1297:1321  address payable[] memory */\n      0x60\n        /* \"contracts/Lottery.sol\":1340:1347  players */\n      0x01\n        /* \"contracts/Lottery.sol\":1333:1347  return players */\n      dup1\n      sload\n      dup1\n      0x20\n      mul\n      0x20\n      add\n      mload(0x40)\n      swap1\n      dup2\n      add\n      0x40\n      mstore\n      dup1\n      swap3\n      swap2\n      swap1\n      dup2\n      dup2\n      mstore\n      0x20\n      add\n      dup3\n      dup1\n      sload\n      dup1\n      iszero\n      tag_84\n      jumpi\n      0x20\n      mul\n      dup3\n      add\n      swap2\n      swap1\n      0x00\n      mstore\n      keccak256(0x00, 0x20)\n      swap1\n    tag_85:\n      dup2\n      0x00\n      swap1\n      sload\n      swap1\n      0x0100\n      exp\n      swap1\n      div\n      0xffffffffffffffffffffffffffffffffffffffff\n      and\n      0xffffffffffffffffffffffffffffffffffffffff\n      and\n      dup2\n      mstore\n      0x20\n      add\n      swap1\n      0x01\n      add\n      swap1\n      dup1\n      dup4\n      gt\n      tag_85\n      jumpi\n    tag_84:\n      pop\n      pop\n      pop\n      pop\n      pop\n      swap1\n      pop\n        /* \"contracts/Lottery.sol\":1254:1354  function getPlayers() public view returns (address payable[] memory) {... */\n      swap1\n      jump\t// out\n        /* \"contracts/Lottery.sol\":517:598  function getWinner() public view returns (address) {... */\n    tag_38:\n        /* \"contracts/Lottery.sol\":559:566  address */\n      0x00\n        /* \"contracts/Lottery.sol\":585:591  winner */\n      0x02\n      0x00\n      swap1\n      sload\n      swap1\n      0x0100\n      exp\n      swap1\n      div\n      0xffffffffffffffffffffffffffffffffffffffff\n      and\n        /* \"contracts/Lottery.sol\":578:591  return winner */\n      swap1\n      pop\n        /* \"contracts/Lottery.sol\":517:598  function getWinner() public view returns (address) {... */\n      swap1\n      jump\t// out\n        /* \"contracts/Lottery.sol\":174:196  bool public isComplete */\n    tag_42:\n      0x02\n      0x14\n      swap1\n      sload\n      swap1\n      0x0100\n      exp\n      swap1\n      div\n      0xff\n      and\n      dup2\n      jump\t// out\n        /* \"contracts/Lottery.sol\":1589:2040  function resetLottery() public restricted {... */\n    tag_46:\n        /* \"contracts/Lottery.sol\":396:403  manager */\n      0x00\n      dup1\n      sload\n      swap1\n      0x0100\n      exp\n      swap1\n      div\n      0xffffffffffffffffffffffffffffffffffffffff\n      and\n        /* \"contracts/Lottery.sol\":382:403  msg.sender == manager */\n      0xffffffffffffffffffffffffffffffffffffffff\n      and\n        /* \"contracts/Lottery.sol\":382:392  msg.sender */\n      caller\n        /* \"contracts/Lottery.sol\":382:403  msg.sender == manager */\n      0xffffffffffffffffffffffffffffffffffffffff\n      and\n      eq\n        /* \"contracts/Lottery.sol\":374:404  require(msg.sender == manager) */\n      tag_88\n      jumpi\n      0x00\n      dup1\n      revert\n    tag_88:\n        /* \"contracts/Lottery.sol\":1649:1659  isComplete */\n      0x02\n      0x14\n      swap1\n      sload\n      swap1\n      0x0100\n      exp\n      swap1\n      div\n      0xff\n      and\n        /* \"contracts/Lottery.sol\":1641:1705  require(isComplete, \"The current lottery round is not complete\") */\n      tag_90\n      jumpi\n      mload(0x40)\n      0x08c379a000000000000000000000000000000000000000000000000000000000\n      dup2\n      mstore\n      0x04\n      add\n      tag_91\n      swap1\n      tag_92\n      jump\t// in\n    tag_91:\n      mload(0x40)\n      dup1\n      swap2\n      sub\n      swap1\n      revert\n    tag_90:\n        /* \"contracts/Lottery.sol\":1723:1730  claimed */\n      0x02\n      0x15\n      swap1\n      sload\n      swap1\n      0x0100\n      exp\n      swap1\n      div\n      0xff\n      and\n        /* \"contracts/Lottery.sol\":1715:1765  require(claimed, \"Prize has not been claimed yet\") */\n      tag_93\n      jumpi\n      mload(0x40)\n      0x08c379a000000000000000000000000000000000000000000000000000000000\n      dup2\n      mstore\n      0x04\n      add\n      tag_94\n      swap1\n      tag_95\n      jump\t// in\n    tag_94:\n      mload(0x40)\n      dup1\n      swap2\n      sub\n      swap1\n      revert\n    tag_93:\n        /* \"contracts/Lottery.sol\":1811:1818  players */\n      0x01\n      0x00\n        /* \"contracts/Lottery.sol\":1804:1818  delete players */\n      tag_96\n      swap2\n      swap1\n      tag_97\n      jump\t// in\n    tag_96:\n        /* \"contracts/Lottery.sol\":1883:1884  0 */\n      0x00\n        /* \"contracts/Lottery.sol\":1858:1864  winner */\n      0x02\n      0x00\n        /* \"contracts/Lottery.sol\":1858:1886  winner = payable(address(0)) */\n      0x0100\n      exp\n      dup2\n      sload\n      dup2\n      0xffffffffffffffffffffffffffffffffffffffff\n      mul\n      not\n      and\n      swap1\n      dup4\n      0xffffffffffffffffffffffffffffffffffffffff\n      and\n      mul\n      or\n      swap1\n      sstore\n      pop\n        /* \"contracts/Lottery.sol\":1932:1937  false */\n      0x00\n        /* \"contracts/Lottery.sol\":1919:1929  isComplete */\n      0x02\n      0x14\n        /* \"contracts/Lottery.sol\":1919:1937  isComplete = false */\n      0x0100\n      exp\n      dup2\n      sload\n      dup2\n      0xff\n      mul\n      not\n      and\n      swap1\n      dup4\n      iszero\n      iszero\n      mul\n      or\n      swap1\n      sstore\n      pop\n        /* \"contracts/Lottery.sol\":1994:1999  false */\n      0x00\n        /* \"contracts/Lottery.sol\":1984:1991  claimed */\n      0x02\n      0x15\n        /* \"contracts/Lottery.sol\":1984:1999  claimed = false */\n      0x0100\n      exp\n      dup2\n      sload\n      dup2\n      0xff\n      mul\n      not\n      and\n      swap1\n      dup4\n      iszero\n      iszero\n      mul\n      or\n      swap1\n      sstore\n      pop\n        /* \"contracts/Lottery.sol\":1589:2040  function resetLottery() public restricted {... */\n      jump\t// out\n        /* \"contracts/Lottery.sol\":428:511  function getManager() public view returns (address) {... */\n    tag_49:\n        /* \"contracts/Lottery.sol\":471:478  address */\n      0x00\n        /* \"contracts/Lottery.sol\":497:504  manager */\n      dup1\n      0x00\n      swap1\n      sload\n      swap1\n      0x0100\n      exp\n      swap1\n      div\n      0xffffffffffffffffffffffffffffffffffffffff\n      and\n        /* \"contracts/Lottery.sol\":490:504  return manager */\n      swap1\n      pop\n        /* \"contracts/Lottery.sol\":428:511  function getManager() public view returns (address) {... */\n      swap1\n      jump\t// out\n        /* \"contracts/Lottery.sol\":202:221  bool public claimed */\n    tag_53:\n      0x02\n      0x15\n      swap1\n      sload\n      swap1\n      0x0100\n      exp\n      swap1\n      div\n      0xff\n      and\n      dup2\n      jump\t// out\n        /* \"contracts/Lottery.sol\":693:848  function enter() public payable {... */\n    tag_56:\n        /* \"contracts/Lottery.sol\":756:767  0.001 ether */\n      0x038d7ea4c68000\n        /* \"contracts/Lottery.sol\":743:752  msg.value */\n      callvalue\n        /* \"contracts/Lottery.sol\":743:767  msg.value >= 0.001 ether */\n      lt\n      iszero\n        /* \"contracts/Lottery.sol\":735:768  require(msg.value >= 0.001 ether) */\n      tag_100\n      jumpi\n      0x00\n      dup1\n      revert\n    tag_100:\n        /* \"contracts/Lottery.sol\":787:797  isComplete */\n      0x02\n      0x14\n      swap1\n      sload\n      swap1\n      0x0100\n      exp\n      swap1\n      div\n      0xff\n      and\n        /* \"contracts/Lottery.sol\":786:797  !isComplete */\n      iszero\n        /* \"contracts/Lottery.sol\":778:798  require(!isComplete) */\n      tag_101\n      jumpi\n      0x00\n      dup1\n      revert\n    tag_101:\n        /* \"contracts/Lottery.sol\":808:815  players */\n      0x01\n        /* \"contracts/Lottery.sol\":829:839  msg.sender */\n      caller\n        /* \"contracts/Lottery.sol\":808:841  players.push(payable(msg.sender)) */\n      swap1\n      dup1\n      0x01\n      dup2\n      sload\n      add\n      dup1\n      dup3\n      sstore\n      dup1\n      swap2\n      pop\n      pop\n      0x01\n      swap1\n      sub\n      swap1\n      0x00\n      mstore\n      keccak256(0x00, 0x20)\n      add\n      0x00\n      swap1\n      swap2\n      swap1\n      swap2\n      swap1\n      swap2\n      0x0100\n      exp\n      dup2\n      sload\n      dup2\n      0xffffffffffffffffffffffffffffffffffffffff\n      mul\n      not\n      and\n      swap1\n      dup4\n      0xffffffffffffffffffffffffffffffffffffffff\n      and\n      mul\n      or\n      swap1\n      sstore\n      pop\n        /* \"contracts/Lottery.sol\":693:848  function enter() public payable {... */\n      jump\t// out\n        /* \"contracts/Lottery.sol\":108:140  address payable[] public players */\n    tag_61:\n      0x01\n      dup2\n      dup2\n      sload\n      dup2\n      lt\n      tag_103\n      jumpi\n      0x00\n      dup1\n      revert\n    tag_103:\n      swap1\n      0x00\n      mstore\n      keccak256(0x00, 0x20)\n      add\n      0x00\n      swap2\n      pop\n      sload\n      swap1\n      0x0100\n      exp\n      swap1\n      div\n      0xffffffffffffffffffffffffffffffffffffffff\n      and\n      dup2\n      jump\t// out\n        /* \"contracts/Lottery.sol\":1374:1534  function randomNumber() private view returns (uint) {... */\n    tag_71:\n        /* \"contracts/Lottery.sol\":1420:1424  uint */\n      0x00\n        /* \"contracts/Lottery.sol\":1475:1491  block.prevrandao */\n      prevrandao\n        /* \"contracts/Lottery.sol\":1493:1508  block.timestamp */\n      timestamp\n        /* \"contracts/Lottery.sol\":1510:1517  players */\n      0x01\n        /* \"contracts/Lottery.sol\":1510:1524  players.length */\n      dup1\n      sload\n      swap1\n      pop\n        /* \"contracts/Lottery.sol\":1458:1525  abi.encodePacked(block.prevrandao, block.timestamp, players.length) */\n      add(0x20, mload(0x40))\n      tag_106\n      swap4\n      swap3\n      swap2\n      swap1\n      tag_107\n      jump\t// in\n    tag_106:\n      mload(0x40)\n      0x20\n      dup2\n      dup4\n      sub\n      sub\n      dup2\n      mstore\n      swap1\n      0x40\n      mstore\n        /* \"contracts/Lottery.sol\":1448:1526  keccak256(abi.encodePacked(block.prevrandao, block.timestamp, players.length)) */\n      dup1\n      mload\n      swap1\n      0x20\n      add\n      keccak256\n        /* \"contracts/Lottery.sol\":1443:1527  uint(keccak256(abi.encodePacked(block.prevrandao, block.timestamp, players.length))) */\n      0x00\n      shr\n        /* \"contracts/Lottery.sol\":1436:1527  return uint(keccak256(abi.encodePacked(block.prevrandao, block.timestamp, players.length))) */\n      swap1\n      pop\n        /* \"contracts/Lottery.sol\":1374:1534  function randomNumber() private view returns (uint) {... */\n      swap1\n      jump\t// out\n    tag_97:\n      pop\n      dup1\n      sload\n      0x00\n      dup3\n      sstore\n      swap1\n      0x00\n      mstore\n      keccak256(0x00, 0x20)\n      swap1\n      dup2\n      add\n      swap1\n      tag_109\n      swap2\n      swap1\n      tag_110\n      jump\t// in\n    tag_109:\n      pop\n      jump\t// out\n    tag_110:\n    tag_111:\n      dup1\n      dup3\n      gt\n      iszero\n      tag_112\n      jumpi\n      0x00\n      dup2\n      0x00\n      swap1\n      sstore\n      pop\n      0x01\n      add\n      jump(tag_111)\n    tag_112:\n      pop\n      swap1\n      jump\t// out\n        /* \"#utility.yul\":7:97   */\n    tag_113:\n        /* \"#utility.yul\":41:48   */\n      0x00\n        /* \"#utility.yul\":84:89   */\n      dup2\n        /* \"#utility.yul\":77:90   */\n      iszero\n        /* \"#utility.yul\":70:91   */\n      iszero\n        /* \"#utility.yul\":59:91   */\n      swap1\n      pop\n        /* \"#utility.yul\":7:97   */\n      swap2\n      swap1\n      pop\n      jump\t// out\n        /* \"#utility.yul\":103:212   */\n    tag_114:\n        /* \"#utility.yul\":184:205   */\n      tag_144\n        /* \"#utility.yul\":199:204   */\n      dup2\n        /* \"#utility.yul\":184:205   */\n      tag_113\n      jump\t// in\n    tag_144:\n        /* \"#utility.yul\":179:182   */\n      dup3\n        /* \"#utility.yul\":172:206   */\n      mstore\n        /* \"#utility.yul\":103:212   */\n      pop\n      pop\n      jump\t// out\n        /* \"#utility.yul\":218:428   */\n    tag_19:\n        /* \"#utility.yul\":305:309   */\n      0x00\n        /* \"#utility.yul\":343:345   */\n      0x20\n        /* \"#utility.yul\":332:341   */\n      dup3\n        /* \"#utility.yul\":328:346   */\n      add\n        /* \"#utility.yul\":320:346   */\n      swap1\n      pop\n        /* \"#utility.yul\":356:421   */\n      tag_146\n        /* \"#utility.yul\":418:419   */\n      0x00\n        /* \"#utility.yul\":407:416   */\n      dup4\n        /* \"#utility.yul\":403:420   */\n      add\n        /* \"#utility.yul\":394:400   */\n      dup5\n        /* \"#utility.yul\":356:421   */\n      tag_114\n      jump\t// in\n    tag_146:\n        /* \"#utility.yul\":218:428   */\n      swap3\n      swap2\n      pop\n      pop\n      jump\t// out\n        /* \"#utility.yul\":434:560   */\n    tag_115:\n        /* \"#utility.yul\":471:478   */\n      0x00\n        /* \"#utility.yul\":511:553   */\n      0xffffffffffffffffffffffffffffffffffffffff\n        /* \"#utility.yul\":504:509   */\n      dup3\n        /* \"#utility.yul\":500:554   */\n      and\n        /* \"#utility.yul\":489:554   */\n      swap1\n      pop\n        /* \"#utility.yul\":434:560   */\n      swap2\n      swap1\n      pop\n      jump\t// out\n        /* \"#utility.yul\":566:662   */\n    tag_116:\n        /* \"#utility.yul\":603:610   */\n      0x00\n        /* \"#utility.yul\":632:656   */\n      tag_149\n        /* \"#utility.yul\":650:655   */\n      dup3\n        /* \"#utility.yul\":632:656   */\n      tag_115\n      jump\t// in\n    tag_149:\n        /* \"#utility.yul\":621:656   */\n      swap1\n      pop\n        /* \"#utility.yul\":566:662   */\n      swap2\n      swap1\n      pop\n      jump\t// out\n        /* \"#utility.yul\":668:786   */\n    tag_117:\n        /* \"#utility.yul\":755:779   */\n      tag_151\n        /* \"#utility.yul\":773:778   */\n      dup2\n        /* \"#utility.yul\":755:779   */\n      tag_116\n      jump\t// in\n    tag_151:\n        /* \"#utility.yul\":750:753   */\n      dup3\n        /* \"#utility.yul\":743:780   */\n      mstore\n        /* \"#utility.yul\":668:786   */\n      pop\n      pop\n      jump\t// out\n        /* \"#utility.yul\":792:1014   */\n    tag_24:\n        /* \"#utility.yul\":885:889   */\n      0x00\n        /* \"#utility.yul\":923:925   */\n      0x20\n        /* \"#utility.yul\":912:921   */\n      dup3\n        /* \"#utility.yul\":908:926   */\n      add\n        /* \"#utility.yul\":900:926   */\n      swap1\n      pop\n        /* \"#utility.yul\":936:1007   */\n      tag_153\n        /* \"#utility.yul\":1004:1005   */\n      0x00\n        /* \"#utility.yul\":993:1002   */\n      dup4\n        /* \"#utility.yul\":989:1006   */\n      add\n        /* \"#utility.yul\":980:986   */\n      dup5\n        /* \"#utility.yul\":936:1007   */\n      tag_117\n      jump\t// in\n    tag_153:\n        /* \"#utility.yul\":792:1014   */\n      swap3\n      swap2\n      pop\n      pop\n      jump\t// out\n        /* \"#utility.yul\":1020:1142   */\n    tag_118:\n        /* \"#utility.yul\":1095:1101   */\n      0x00\n        /* \"#utility.yul\":1129:1134   */\n      dup2\n        /* \"#utility.yul\":1123:1135   */\n      mload\n        /* \"#utility.yul\":1113:1135   */\n      swap1\n      pop\n        /* \"#utility.yul\":1020:1142   */\n      swap2\n      swap1\n      pop\n      jump\t// out\n        /* \"#utility.yul\":1148:1340   */\n    tag_119:\n        /* \"#utility.yul\":1255:1266   */\n      0x00\n        /* \"#utility.yul\":1289:1295   */\n      dup3\n        /* \"#utility.yul\":1284:1287   */\n      dup3\n        /* \"#utility.yul\":1277:1296   */\n      mstore\n        /* \"#utility.yul\":1329:1333   */\n      0x20\n        /* \"#utility.yul\":1324:1327   */\n      dup3\n        /* \"#utility.yul\":1320:1334   */\n      add\n        /* \"#utility.yul\":1305:1334   */\n      swap1\n      pop\n        /* \"#utility.yul\":1148:1340   */\n      swap3\n      swap2\n      pop\n      pop\n      jump\t// out\n        /* \"#utility.yul\":1346:1486   */\n    tag_120:\n        /* \"#utility.yul\":1421:1425   */\n      0x00\n        /* \"#utility.yul\":1444:1447   */\n      dup2\n        /* \"#utility.yul\":1436:1447   */\n      swap1\n      pop\n        /* \"#utility.yul\":1474:1478   */\n      0x20\n        /* \"#utility.yul\":1469:1472   */\n      dup3\n        /* \"#utility.yul\":1465:1479   */\n      add\n        /* \"#utility.yul\":1457:1479   */\n      swap1\n      pop\n        /* \"#utility.yul\":1346:1486   */\n      swap2\n      swap1\n      pop\n      jump\t// out\n        /* \"#utility.yul\":1492:1596   */\n    tag_121:\n        /* \"#utility.yul\":1537:1544   */\n      0x00\n        /* \"#utility.yul\":1566:1590   */\n      tag_158\n        /* \"#utility.yul\":1584:1589   */\n      dup3\n        /* \"#utility.yul\":1566:1590   */\n      tag_115\n      jump\t// in\n    tag_158:\n        /* \"#utility.yul\":1555:1590   */\n      swap1\n      pop\n        /* \"#utility.yul\":1492:1596   */\n      swap2\n      swap1\n      pop\n      jump\t// out\n        /* \"#utility.yul\":1602:1734   */\n    tag_122:\n        /* \"#utility.yul\":1695:1727   */\n      tag_160\n        /* \"#utility.yul\":1721:1726   */\n      dup2\n        /* \"#utility.yul\":1695:1727   */\n      tag_121\n      jump\t// in\n    tag_160:\n        /* \"#utility.yul\":1690:1693   */\n      dup3\n        /* \"#utility.yul\":1683:1728   */\n      mstore\n        /* \"#utility.yul\":1602:1734   */\n      pop\n      pop\n      jump\t// out\n        /* \"#utility.yul\":1740:1951   */\n    tag_123:\n        /* \"#utility.yul\":1825:1835   */\n      0x00\n        /* \"#utility.yul\":1846:1908   */\n      tag_162\n        /* \"#utility.yul\":1904:1907   */\n      dup4\n        /* \"#utility.yul\":1896:1902   */\n      dup4\n        /* \"#utility.yul\":1846:1908   */\n      tag_122\n      jump\t// in\n    tag_162:\n        /* \"#utility.yul\":1940:1944   */\n      0x20\n        /* \"#utility.yul\":1935:1938   */\n      dup4\n        /* \"#utility.yul\":1931:1945   */\n      add\n        /* \"#utility.yul\":1917:1945   */\n      swap1\n      pop\n        /* \"#utility.yul\":1740:1951   */\n      swap3\n      swap2\n      pop\n      pop\n      jump\t// out\n        /* \"#utility.yul\":1957:2078   */\n    tag_124:\n        /* \"#utility.yul\":2035:2039   */\n      0x00\n        /* \"#utility.yul\":2067:2071   */\n      0x20\n        /* \"#utility.yul\":2062:2065   */\n      dup3\n        /* \"#utility.yul\":2058:2072   */\n      add\n        /* \"#utility.yul\":2050:2072   */\n      swap1\n      pop\n        /* \"#utility.yul\":1957:2078   */\n      swap2\n      swap1\n      pop\n      jump\t// out\n        /* \"#utility.yul\":2130:2926   */\n    tag_125:\n        /* \"#utility.yul\":2265:2268   */\n      0x00\n        /* \"#utility.yul\":2294:2356   */\n      tag_165\n        /* \"#utility.yul\":2350:2355   */\n      dup3\n        /* \"#utility.yul\":2294:2356   */\n      tag_118\n      jump\t// in\n    tag_165:\n        /* \"#utility.yul\":2372:2466   */\n      tag_166\n        /* \"#utility.yul\":2459:2465   */\n      dup2\n        /* \"#utility.yul\":2454:2457   */\n      dup6\n        /* \"#utility.yul\":2372:2466   */\n      tag_119\n      jump\t// in\n    tag_166:\n        /* \"#utility.yul\":2365:2466   */\n      swap4\n      pop\n        /* \"#utility.yul\":2490:2554   */\n      tag_167\n        /* \"#utility.yul\":2548:2553   */\n      dup4\n        /* \"#utility.yul\":2490:2554   */\n      tag_120\n      jump\t// in\n    tag_167:\n        /* \"#utility.yul\":2577:2584   */\n      dup1\n        /* \"#utility.yul\":2608:2609   */\n      0x00\n        /* \"#utility.yul\":2593:2901   */\n    tag_168:\n        /* \"#utility.yul\":2618:2624   */\n      dup4\n        /* \"#utility.yul\":2615:2616   */\n      dup2\n        /* \"#utility.yul\":2612:2625   */\n      lt\n        /* \"#utility.yul\":2593:2901   */\n      iszero\n      tag_170\n      jumpi\n        /* \"#utility.yul\":2694:2700   */\n      dup2\n        /* \"#utility.yul\":2688:2701   */\n      mload\n        /* \"#utility.yul\":2721:2800   */\n      tag_171\n        /* \"#utility.yul\":2796:2799   */\n      dup9\n        /* \"#utility.yul\":2781:2794   */\n      dup3\n        /* \"#utility.yul\":2721:2800   */\n      tag_123\n      jump\t// in\n    tag_171:\n        /* \"#utility.yul\":2714:2800   */\n      swap8\n      pop\n        /* \"#utility.yul\":2823:2891   */\n      tag_172\n        /* \"#utility.yul\":2884:2890   */\n      dup4\n        /* \"#utility.yul\":2823:2891   */\n      tag_124\n      jump\t// in\n    tag_172:\n        /* \"#utility.yul\":2813:2891   */\n      swap3\n      pop\n        /* \"#utility.yul\":2653:2901   */\n      pop\n        /* \"#utility.yul\":2640:2641   */\n      0x01\n        /* \"#utility.yul\":2637:2638   */\n      dup2\n        /* \"#utility.yul\":2633:2642   */\n      add\n        /* \"#utility.yul\":2628:2642   */\n      swap1\n      pop\n        /* \"#utility.yul\":2593:2901   */\n      jump(tag_168)\n    tag_170:\n        /* \"#utility.yul\":2597:2611   */\n      pop\n        /* \"#utility.yul\":2917:2920   */\n      dup6\n        /* \"#utility.yul\":2910:2920   */\n      swap4\n      pop\n        /* \"#utility.yul\":2270:2926   */\n      pop\n      pop\n      pop\n        /* \"#utility.yul\":2130:2926   */\n      swap3\n      swap2\n      pop\n      pop\n      jump\t// out\n        /* \"#utility.yul\":2932:3337   */\n    tag_35:\n        /* \"#utility.yul\":3091:3095   */\n      0x00\n        /* \"#utility.yul\":3129:3131   */\n      0x20\n        /* \"#utility.yul\":3118:3127   */\n      dup3\n        /* \"#utility.yul\":3114:3132   */\n      add\n        /* \"#utility.yul\":3106:3132   */\n      swap1\n      pop\n        /* \"#utility.yul\":3178:3187   */\n      dup2\n        /* \"#utility.yul\":3172:3176   */\n      dup2\n        /* \"#utility.yul\":3168:3188   */\n      sub\n        /* \"#utility.yul\":3164:3165   */\n      0x00\n        /* \"#utility.yul\":3153:3162   */\n      dup4\n        /* \"#utility.yul\":3149:3166   */\n      add\n        /* \"#utility.yul\":3142:3189   */\n      mstore\n        /* \"#utility.yul\":3206:3330   */\n      tag_174\n        /* \"#utility.yul\":3325:3329   */\n      dup2\n        /* \"#utility.yul\":3316:3322   */\n      dup5\n        /* \"#utility.yul\":3206:3330   */\n      tag_125\n      jump\t// in\n    tag_174:\n        /* \"#utility.yul\":3198:3330   */\n      swap1\n      pop\n        /* \"#utility.yul\":2932:3337   */\n      swap3\n      swap2\n      pop\n      pop\n      jump\t// out\n        /* \"#utility.yul\":3424:3541   */\n    tag_127:\n        /* \"#utility.yul\":3533:3534   */\n      0x00\n        /* \"#utility.yul\":3530:3531   */\n      dup1\n        /* \"#utility.yul\":3523:3535   */\n      revert\n        /* \"#utility.yul\":3670:3747   */\n    tag_129:\n        /* \"#utility.yul\":3707:3714   */\n      0x00\n        /* \"#utility.yul\":3736:3741   */\n      dup2\n        /* \"#utility.yul\":3725:3741   */\n      swap1\n      pop\n        /* \"#utility.yul\":3670:3747   */\n      swap2\n      swap1\n      pop\n      jump\t// out\n        /* \"#utility.yul\":3753:3875   */\n    tag_130:\n        /* \"#utility.yul\":3826:3850   */\n      tag_180\n        /* \"#utility.yul\":3844:3849   */\n      dup2\n        /* \"#utility.yul\":3826:3850   */\n      tag_129\n      jump\t// in\n    tag_180:\n        /* \"#utility.yul\":3819:3824   */\n      dup2\n        /* \"#utility.yul\":3816:3851   */\n      eq\n        /* \"#utility.yul\":3806:3869   */\n      tag_181\n      jumpi\n        /* \"#utility.yul\":3865:3866   */\n      0x00\n        /* \"#utility.yul\":3862:3863   */\n      dup1\n        /* \"#utility.yul\":3855:3867   */\n      revert\n        /* \"#utility.yul\":3806:3869   */\n    tag_181:\n        /* \"#utility.yul\":3753:3875   */\n      pop\n      jump\t// out\n        /* \"#utility.yul\":3881:4020   */\n    tag_131:\n        /* \"#utility.yul\":3927:3932   */\n      0x00\n        /* \"#utility.yul\":3965:3971   */\n      dup2\n        /* \"#utility.yul\":3952:3972   */\n      calldataload\n        /* \"#utility.yul\":3943:3972   */\n      swap1\n      pop\n        /* \"#utility.yul\":3981:4014   */\n      tag_183\n        /* \"#utility.yul\":4008:4013   */\n      dup2\n        /* \"#utility.yul\":3981:4014   */\n      tag_130\n      jump\t// in\n    tag_183:\n        /* \"#utility.yul\":3881:4020   */\n      swap3\n      swap2\n      pop\n      pop\n      jump\t// out\n        /* \"#utility.yul\":4026:4355   */\n    tag_60:\n        /* \"#utility.yul\":4085:4091   */\n      0x00\n        /* \"#utility.yul\":4134:4136   */\n      0x20\n        /* \"#utility.yul\":4122:4131   */\n      dup3\n        /* \"#utility.yul\":4113:4120   */\n      dup5\n        /* \"#utility.yul\":4109:4132   */\n      sub\n        /* \"#utility.yul\":4105:4137   */\n      slt\n        /* \"#utility.yul\":4102:4221   */\n      iszero\n      tag_185\n      jumpi\n        /* \"#utility.yul\":4140:4219   */\n      tag_186\n      tag_127\n      jump\t// in\n    tag_186:\n        /* \"#utility.yul\":4102:4221   */\n    tag_185:\n        /* \"#utility.yul\":4260:4261   */\n      0x00\n        /* \"#utility.yul\":4285:4338   */\n      tag_187\n        /* \"#utility.yul\":4330:4337   */\n      dup5\n        /* \"#utility.yul\":4321:4327   */\n      dup3\n        /* \"#utility.yul\":4310:4319   */\n      dup6\n        /* \"#utility.yul\":4306:4328   */\n      add\n        /* \"#utility.yul\":4285:4338   */\n      tag_131\n      jump\t// in\n    tag_187:\n        /* \"#utility.yul\":4275:4338   */\n      swap2\n      pop\n        /* \"#utility.yul\":4231:4348   */\n      pop\n        /* \"#utility.yul\":4026:4355   */\n      swap3\n      swap2\n      pop\n      pop\n      jump\t// out\n        /* \"#utility.yul\":4361:4503   */\n    tag_132:\n        /* \"#utility.yul\":4464:4496   */\n      tag_189\n        /* \"#utility.yul\":4490:4495   */\n      dup2\n        /* \"#utility.yul\":4464:4496   */\n      tag_121\n      jump\t// in\n    tag_189:\n        /* \"#utility.yul\":4459:4462   */\n      dup3\n        /* \"#utility.yul\":4452:4497   */\n      mstore\n        /* \"#utility.yul\":4361:4503   */\n      pop\n      pop\n      jump\t// out\n        /* \"#utility.yul\":4509:4763   */\n    tag_63:\n        /* \"#utility.yul\":4618:4622   */\n      0x00\n        /* \"#utility.yul\":4656:4658   */\n      0x20\n        /* \"#utility.yul\":4645:4654   */\n      dup3\n        /* \"#utility.yul\":4641:4659   */\n      add\n        /* \"#utility.yul\":4633:4659   */\n      swap1\n      pop\n        /* \"#utility.yul\":4669:4756   */\n      tag_191\n        /* \"#utility.yul\":4753:4754   */\n      0x00\n        /* \"#utility.yul\":4742:4751   */\n      dup4\n        /* \"#utility.yul\":4738:4755   */\n      add\n        /* \"#utility.yul\":4729:4735   */\n      dup5\n        /* \"#utility.yul\":4669:4756   */\n      tag_132\n      jump\t// in\n    tag_191:\n        /* \"#utility.yul\":4509:4763   */\n      swap3\n      swap2\n      pop\n      pop\n      jump\t// out\n        /* \"#utility.yul\":4769:4949   */\n    tag_133:\n        /* \"#utility.yul\":4817:4894   */\n      0x4e487b7100000000000000000000000000000000000000000000000000000000\n        /* \"#utility.yul\":4814:4815   */\n      0x00\n        /* \"#utility.yul\":4807:4895   */\n      mstore\n        /* \"#utility.yul\":4914:4918   */\n      0x12\n        /* \"#utility.yul\":4911:4912   */\n      0x04\n        /* \"#utility.yul\":4904:4919   */\n      mstore\n        /* \"#utility.yul\":4938:4942   */\n      0x24\n        /* \"#utility.yul\":4935:4936   */\n      0x00\n        /* \"#utility.yul\":4928:4943   */\n      revert\n        /* \"#utility.yul\":4955:5131   */\n    tag_73:\n        /* \"#utility.yul\":4987:4988   */\n      0x00\n        /* \"#utility.yul\":5004:5024   */\n      tag_194\n        /* \"#utility.yul\":5022:5023   */\n      dup3\n        /* \"#utility.yul\":5004:5024   */\n      tag_129\n      jump\t// in\n    tag_194:\n        /* \"#utility.yul\":4999:5024   */\n      swap2\n      pop\n        /* \"#utility.yul\":5038:5058   */\n      tag_195\n        /* \"#utility.yul\":5056:5057   */\n      dup4\n        /* \"#utility.yul\":5038:5058   */\n      tag_129\n      jump\t// in\n    tag_195:\n        /* \"#utility.yul\":5033:5058   */\n      swap3\n      pop\n        /* \"#utility.yul\":5077:5078   */\n      dup3\n        /* \"#utility.yul\":5067:5102   */\n      tag_196\n      jumpi\n        /* \"#utility.yul\":5082:5100   */\n      tag_197\n      tag_133\n      jump\t// in\n    tag_197:\n        /* \"#utility.yul\":5067:5102   */\n    tag_196:\n        /* \"#utility.yul\":5123:5124   */\n      dup3\n        /* \"#utility.yul\":5120:5121   */\n      dup3\n        /* \"#utility.yul\":5116:5125   */\n      mod\n        /* \"#utility.yul\":5111:5125   */\n      swap1\n      pop\n        /* \"#utility.yul\":4955:5131   */\n      swap3\n      swap2\n      pop\n      pop\n      jump\t// out\n        /* \"#utility.yul\":5137:5317   */\n    tag_76:\n        /* \"#utility.yul\":5185:5262   */\n      0x4e487b7100000000000000000000000000000000000000000000000000000000\n        /* \"#utility.yul\":5182:5183   */\n      0x00\n        /* \"#utility.yul\":5175:5263   */\n      mstore\n        /* \"#utility.yul\":5282:5286   */\n      0x32\n        /* \"#utility.yul\":5279:5280   */\n      0x04\n        /* \"#utility.yul\":5272:5287   */\n      mstore\n        /* \"#utility.yul\":5306:5310   */\n      0x24\n        /* \"#utility.yul\":5303:5304   */\n      0x00\n        /* \"#utility.yul\":5296:5311   */\n      revert\n        /* \"#utility.yul\":5323:5492   */\n    tag_134:\n        /* \"#utility.yul\":5407:5418   */\n      0x00\n        /* \"#utility.yul\":5441:5447   */\n      dup3\n        /* \"#utility.yul\":5436:5439   */\n      dup3\n        /* \"#utility.yul\":5429:5448   */\n      mstore\n        /* \"#utility.yul\":5481:5485   */\n      0x20\n        /* \"#utility.yul\":5476:5479   */\n      dup3\n        /* \"#utility.yul\":5472:5486   */\n      add\n        /* \"#utility.yul\":5457:5486   */\n      swap1\n      pop\n        /* \"#utility.yul\":5323:5492   */\n      swap3\n      swap2\n      pop\n      pop\n      jump\t// out\n        /* \"#utility.yul\":5498:5726   */\n    tag_135:\n        /* \"#utility.yul\":5638:5672   */\n      0x5468652063757272656e74206c6f747465727920726f756e64206973206e6f74\n        /* \"#utility.yul\":5634:5635   */\n      0x00\n        /* \"#utility.yul\":5626:5632   */\n      dup3\n        /* \"#utility.yul\":5622:5636   */\n      add\n        /* \"#utility.yul\":5615:5673   */\n      mstore\n        /* \"#utility.yul\":5707:5718   */\n      0x20636f6d706c6574650000000000000000000000000000000000000000000000\n        /* \"#utility.yul\":5702:5704   */\n      0x20\n        /* \"#utility.yul\":5694:5700   */\n      dup3\n        /* \"#utility.yul\":5690:5705   */\n      add\n        /* \"#utility.yul\":5683:5719   */\n      mstore\n        /* \"#utility.yul\":5498:5726   */\n      pop\n      jump\t// out\n        /* \"#utility.yul\":5732:6098   */\n    tag_136:\n        /* \"#utility.yul\":5874:5877   */\n      0x00\n        /* \"#utility.yul\":5895:5962   */\n      tag_202\n        /* \"#utility.yul\":5959:5961   */\n      0x29\n        /* \"#utility.yul\":5954:5957   */\n      dup4\n        /* \"#utility.yul\":5895:5962   */\n      tag_134\n      jump\t// in\n    tag_202:\n        /* \"#utility.yul\":5888:5962   */\n      swap2\n      pop\n        /* \"#utility.yul\":5971:6064   */\n      tag_203\n        /* \"#utility.yul\":6060:6063   */\n      dup3\n        /* \"#utility.yul\":5971:6064   */\n      tag_135\n      jump\t// in\n    tag_203:\n        /* \"#utility.yul\":6089:6091   */\n      0x40\n        /* \"#utility.yul\":6084:6087   */\n      dup3\n        /* \"#utility.yul\":6080:6092   */\n      add\n        /* \"#utility.yul\":6073:6092   */\n      swap1\n      pop\n        /* \"#utility.yul\":5732:6098   */\n      swap2\n      swap1\n      pop\n      jump\t// out\n        /* \"#utility.yul\":6104:6523   */\n    tag_92:\n        /* \"#utility.yul\":6270:6274   */\n      0x00\n        /* \"#utility.yul\":6308:6310   */\n      0x20\n        /* \"#utility.yul\":6297:6306   */\n      dup3\n        /* \"#utility.yul\":6293:6311   */\n      add\n        /* \"#utility.yul\":6285:6311   */\n      swap1\n      pop\n        /* \"#utility.yul\":6357:6366   */\n      dup2\n        /* \"#utility.yul\":6351:6355   */\n      dup2\n        /* \"#utility.yul\":6347:6367   */\n      sub\n        /* \"#utility.yul\":6343:6344   */\n      0x00\n        /* \"#utility.yul\":6332:6341   */\n      dup4\n        /* \"#utility.yul\":6328:6345   */\n      add\n        /* \"#utility.yul\":6321:6368   */\n      mstore\n        /* \"#utility.yul\":6385:6516   */\n      tag_205\n        /* \"#utility.yul\":6511:6515   */\n      dup2\n        /* \"#utility.yul\":6385:6516   */\n      tag_136\n      jump\t// in\n    tag_205:\n        /* \"#utility.yul\":6377:6516   */\n      swap1\n      pop\n        /* \"#utility.yul\":6104:6523   */\n      swap2\n      swap1\n      pop\n      jump\t// out\n        /* \"#utility.yul\":6529:6709   */\n    tag_137:\n        /* \"#utility.yul\":6669:6701   */\n      0x5072697a6520686173206e6f74206265656e20636c61696d6564207965740000\n        /* \"#utility.yul\":6665:6666   */\n      0x00\n        /* \"#utility.yul\":6657:6663   */\n      dup3\n        /* \"#utility.yul\":6653:6667   */\n      add\n        /* \"#utility.yul\":6646:6702   */\n      mstore\n        /* \"#utility.yul\":6529:6709   */\n      pop\n      jump\t// out\n        /* \"#utility.yul\":6715:7081   */\n    tag_138:\n        /* \"#utility.yul\":6857:6860   */\n      0x00\n        /* \"#utility.yul\":6878:6945   */\n      tag_208\n        /* \"#utility.yul\":6942:6944   */\n      0x1e\n        /* \"#utility.yul\":6937:6940   */\n      dup4\n        /* \"#utility.yul\":6878:6945   */\n      tag_134\n      jump\t// in\n    tag_208:\n        /* \"#utility.yul\":6871:6945   */\n      swap2\n      pop\n        /* \"#utility.yul\":6954:7047   */\n      tag_209\n        /* \"#utility.yul\":7043:7046   */\n      dup3\n        /* \"#utility.yul\":6954:7047   */\n      tag_137\n      jump\t// in\n    tag_209:\n        /* \"#utility.yul\":7072:7074   */\n      0x20\n        /* \"#utility.yul\":7067:7070   */\n      dup3\n        /* \"#utility.yul\":7063:7075   */\n      add\n        /* \"#utility.yul\":7056:7075   */\n      swap1\n      pop\n        /* \"#utility.yul\":6715:7081   */\n      swap2\n      swap1\n      pop\n      jump\t// out\n        /* \"#utility.yul\":7087:7506   */\n    tag_95:\n        /* \"#utility.yul\":7253:7257   */\n      0x00\n        /* \"#utility.yul\":7291:7293   */\n      0x20\n        /* \"#utility.yul\":7280:7289   */\n      dup3\n        /* \"#utility.yul\":7276:7294   */\n      add\n        /* \"#utility.yul\":7268:7294   */\n      swap1\n      pop\n        /* \"#utility.yul\":7340:7349   */\n      dup2\n        /* \"#utility.yul\":7334:7338   */\n      dup2\n        /* \"#utility.yul\":7330:7350   */\n      sub\n        /* \"#utility.yul\":7326:7327   */\n      0x00\n        /* \"#utility.yul\":7315:7324   */\n      dup4\n        /* \"#utility.yul\":7311:7328   */\n      add\n        /* \"#utility.yul\":7304:7351   */\n      mstore\n        /* \"#utility.yul\":7368:7499   */\n      tag_211\n        /* \"#utility.yul\":7494:7498   */\n      dup2\n        /* \"#utility.yul\":7368:7499   */\n      tag_138\n      jump\t// in\n    tag_211:\n        /* \"#utility.yul\":7360:7499   */\n      swap1\n      pop\n        /* \"#utility.yul\":7087:7506   */\n      swap2\n      swap1\n      pop\n      jump\t// out\n        /* \"#utility.yul\":7512:7591   */\n    tag_139:\n        /* \"#utility.yul\":7551:7558   */\n      0x00\n        /* \"#utility.yul\":7580:7585   */\n      dup2\n        /* \"#utility.yul\":7569:7585   */\n      swap1\n      pop\n        /* \"#utility.yul\":7512:7591   */\n      swap2\n      swap1\n      pop\n      jump\t// out\n        /* \"#utility.yul\":7597:7754   */\n    tag_140:\n        /* \"#utility.yul\":7702:7747   */\n      tag_214\n        /* \"#utility.yul\":7722:7746   */\n      tag_215\n        /* \"#utility.yul\":7740:7745   */\n      dup3\n        /* \"#utility.yul\":7722:7746   */\n      tag_129\n      jump\t// in\n    tag_215:\n        /* \"#utility.yul\":7702:7747   */\n      tag_139\n      jump\t// in\n    tag_214:\n        /* \"#utility.yul\":7697:7700   */\n      dup3\n        /* \"#utility.yul\":7690:7748   */\n      mstore\n        /* \"#utility.yul\":7597:7754   */\n      pop\n      pop\n      jump\t// out\n        /* \"#utility.yul\":7760:8298   */\n    tag_107:\n        /* \"#utility.yul\":7928:7931   */\n      0x00\n        /* \"#utility.yul\":7943:8018   */\n      tag_217\n        /* \"#utility.yul\":8014:8017   */\n      dup3\n        /* \"#utility.yul\":8005:8011   */\n      dup7\n        /* \"#utility.yul\":7943:8018   */\n      tag_140\n      jump\t// in\n    tag_217:\n        /* \"#utility.yul\":8043:8045   */\n      0x20\n        /* \"#utility.yul\":8038:8041   */\n      dup3\n        /* \"#utility.yul\":8034:8046   */\n      add\n        /* \"#utility.yul\":8027:8046   */\n      swap2\n      pop\n        /* \"#utility.yul\":8056:8131   */\n      tag_218\n        /* \"#utility.yul\":8127:8130   */\n      dup3\n        /* \"#utility.yul\":8118:8124   */\n      dup6\n        /* \"#utility.yul\":8056:8131   */\n      tag_140\n      jump\t// in\n    tag_218:\n        /* \"#utility.yul\":8156:8158   */\n      0x20\n        /* \"#utility.yul\":8151:8154   */\n      dup3\n        /* \"#utility.yul\":8147:8159   */\n      add\n        /* \"#utility.yul\":8140:8159   */\n      swap2\n      pop\n        /* \"#utility.yul\":8169:8244   */\n      tag_219\n        /* \"#utility.yul\":8240:8243   */\n      dup3\n        /* \"#utility.yul\":8231:8237   */\n      dup5\n        /* \"#utility.yul\":8169:8244   */\n      tag_140\n      jump\t// in\n    tag_219:\n        /* \"#utility.yul\":8269:8271   */\n      0x20\n        /* \"#utility.yul\":8264:8267   */\n      dup3\n        /* \"#utility.yul\":8260:8272   */\n      add\n        /* \"#utility.yul\":8253:8272   */\n      swap2\n      pop\n        /* \"#utility.yul\":8289:8292   */\n      dup2\n        /* \"#utility.yul\":8282:8292   */\n      swap1\n      pop\n        /* \"#utility.yul\":7760:8298   */\n      swap5\n      swap4\n      pop\n      pop\n      pop\n      pop\n      jump\t// out\n\n    auxdata: 0xa2646970667358221220c3ac2047308d79d83bedd4c869202d3a28bf52b668dee8acd99df7b39ff826f664736f6c634300081a0033\n}\n",
				"bytecode": {
					"linkReferences": {},
					"object": "6080604052348015600e575f80fd5b50335f806101000a81548173ffffffffffffffffffffffffffffffffffffffff021916908373ffffffffffffffffffffffffffffffffffffffff1602179055505f600260146101000a81548160ff0219169083151502179055505f600260156101000a81548160ff021916908315150217905550610c808061008f5f395ff3fe6080604052600436106100a6575f3560e01c8063b2fa1c9e11610063578063b2fa1c9e1461017e578063d337616e146101a8578063d5009584146101be578063e834a834146101e8578063e97dcb6214610212578063f71d96cb1461021c576100a6565b8063200d2ed2146100aa578063481c6a75146100d45780635d495aea146100fe57806370740ac9146101145780638b5b9ccc1461012a5780638e7ea5b214610154575b5f80fd5b3480156100b5575f80fd5b506100be610258565b6040516100cb919061087b565b60405180910390f35b3480156100df575f80fd5b506100e861026e565b6040516100f591906108d3565b60405180910390f35b348015610109575f80fd5b50610112610291565b005b34801561011f575f80fd5b506101286103be565b005b348015610135575f80fd5b5061013e6104b0565b60405161014b91906109b4565b60405180910390f35b34801561015f575f80fd5b5061016861053b565b60405161017591906108d3565b60405180910390f35b348015610189575f80fd5b50610192610563565b60405161019f919061087b565b60405180910390f35b3480156101b3575f80fd5b506101bc610576565b005b3480156101c9575f80fd5b506101d26106ed565b6040516101df91906108d3565b60405180910390f35b3480156101f3575f80fd5b506101fc610714565b604051610209919061087b565b60405180910390f35b61021a610727565b005b348015610227575f80fd5b50610242600480360381019061023d9190610a0b565b6107b5565b60405161024f9190610a45565b60405180910390f35b5f600260149054906101000a900460ff16905090565b5f8054906101000a900473ffffffffffffffffffffffffffffffffffffffff1681565b5f8054906101000a900473ffffffffffffffffffffffffffffffffffffffff1673ffffffffffffffffffffffffffffffffffffffff163373ffffffffffffffffffffffffffffffffffffffff16146102e7575f80fd5b5f600180549050116102f7575f80fd5b600260149054906101000a900460ff1615610310575f80fd5b6001808054905061031f6107f0565b6103299190610a8b565b8154811061033a57610339610abb565b5b905f5260205f20015f9054906101000a900473ffffffffffffffffffffffffffffffffffffffff1660025f6101000a81548173ffffffffffffffffffffffffffffffffffffffff021916908373ffffffffffffffffffffffffffffffffffffffff1602179055506001600260146101000a81548160ff021916908315150217905550565b60025f9054906101000a900473ffffffffffffffffffffffffffffffffffffffff1673ffffffffffffffffffffffffffffffffffffffff163373ffffffffffffffffffffffffffffffffffffffff1614610416575f80fd5b600260149054906101000a900460ff1661042e575f80fd5b60025f9054906101000a900473ffffffffffffffffffffffffffffffffffffffff1673ffffffffffffffffffffffffffffffffffffffff166108fc4790811502906040515f60405180830381858888f19350505050158015610492573d5f803e3d5ffd5b506001600260156101000a81548160ff021916908315150217905550565b6060600180548060200260200160405190810160405280929190818152602001828054801561053157602002820191905f5260205f20905b815f9054906101000a900473ffffffffffffffffffffffffffffffffffffffff1673ffffffffffffffffffffffffffffffffffffffff16815260200190600101908083116104e8575b5050505050905090565b5f60025f9054906101000a900473ffffffffffffffffffffffffffffffffffffffff16905090565b600260149054906101000a900460ff1681565b5f8054906101000a900473ffffffffffffffffffffffffffffffffffffffff1673ffffffffffffffffffffffffffffffffffffffff163373ffffffffffffffffffffffffffffffffffffffff16146105cc575f80fd5b600260149054906101000a900460ff1661061b576040517f08c379a000000000000000000000000000000000000000000000000000000000815260040161061290610b68565b60405180910390fd5b600260159054906101000a900460ff1661066a576040517f08c379a000000000000000000000000000000000000000000000000000000000815260040161066190610bd0565b60405180910390fd5b60015f6106779190610828565b5f60025f6101000a81548173ffffffffffffffffffffffffffffffffffffffff021916908373ffffffffffffffffffffffffffffffffffffffff1602179055505f600260146101000a81548160ff0219169083151502179055505f600260156101000a81548160ff021916908315150217905550565b5f805f9054906101000a900473ffffffffffffffffffffffffffffffffffffffff16905090565b600260159054906101000a900460ff1681565b66038d7ea4c6800034101561073a575f80fd5b600260149054906101000a900460ff1615610753575f80fd5b600133908060018154018082558091505060019003905f5260205f20015f9091909190916101000a81548173ffffffffffffffffffffffffffffffffffffffff021916908373ffffffffffffffffffffffffffffffffffffffff160217905550565b600181815481106107c4575f80fd5b905f5260205f20015f915054906101000a900473ffffffffffffffffffffffffffffffffffffffff1681565b5f444260018054905060405160200161080b93929190610c0e565b604051602081830303815290604052805190602001205f1c905090565b5080545f8255905f5260205f20908101906108439190610846565b50565b5b8082111561085d575f815f905550600101610847565b5090565b5f8115159050919050565b61087581610861565b82525050565b5f60208201905061088e5f83018461086c565b92915050565b5f73ffffffffffffffffffffffffffffffffffffffff82169050919050565b5f6108bd82610894565b9050919050565b6108cd816108b3565b82525050565b5f6020820190506108e65f8301846108c4565b92915050565b5f81519050919050565b5f82825260208201905092915050565b5f819050602082019050919050565b5f61091f82610894565b9050919050565b61092f81610915565b82525050565b5f6109408383610926565b60208301905092915050565b5f602082019050919050565b5f610962826108ec565b61096c81856108f6565b935061097783610906565b805f5b838110156109a757815161098e8882610935565b97506109998361094c565b92505060018101905061097a565b5085935050505092915050565b5f6020820190508181035f8301526109cc8184610958565b905092915050565b5f80fd5b5f819050919050565b6109ea816109d8565b81146109f4575f80fd5b50565b5f81359050610a05816109e1565b92915050565b5f60208284031215610a2057610a1f6109d4565b5b5f610a2d848285016109f7565b91505092915050565b610a3f81610915565b82525050565b5f602082019050610a585f830184610a36565b92915050565b7f4e487b71000000000000000000000000000000000000000000000000000000005f52601260045260245ffd5b5f610a95826109d8565b9150610aa0836109d8565b925082610ab057610aaf610a5e565b5b828206905092915050565b7f4e487b71000000000000000000000000000000000000000000000000000000005f52603260045260245ffd5b5f82825260208201905092915050565b7f5468652063757272656e74206c6f747465727920726f756e64206973206e6f745f8201527f20636f6d706c6574650000000000000000000000000000000000000000000000602082015250565b5f610b52602983610ae8565b9150610b5d82610af8565b604082019050919050565b5f6020820190508181035f830152610b7f81610b46565b9050919050565b7f5072697a6520686173206e6f74206265656e20636c61696d65642079657400005f82015250565b5f610bba601e83610ae8565b9150610bc582610b86565b602082019050919050565b5f6020820190508181035f830152610be781610bae565b9050919050565b5f819050919050565b610c08610c03826109d8565b610bee565b82525050565b5f610c198286610bf7565b602082019150610c298285610bf7565b602082019150610c398284610bf7565b60208201915081905094935050505056fea2646970667358221220c3ac2047308d79d83bedd4c869202d3a28bf52b668dee8acd99df7b39ff826f664736f6c634300081a0033",
					"opcodes": "PUSH1 0x80 PUSH1 0x40 MSTORE CALLVALUE DUP1 ISZERO PUSH1 0xE JUMPI PUSH0 DUP1 REVERT JUMPDEST POP CALLER PUSH0 DUP1 PUSH2 0x100 EXP DUP2 SLOAD DUP2 PUSH20 0xFFFFFFFFFFFFFFFFFFFFFFFFFFFFFFFFFFFFFFFF MUL NOT AND SWAP1 DUP4 PUSH20 0xFFFFFFFFFFFFFFFFFFFFFFFFFFFFFFFFFFFFFFFF AND MUL OR SWAP1 SSTORE POP PUSH0 PUSH1 0x2 PUSH1 0x14 PUSH2 0x100 EXP DUP2 SLOAD DUP2 PUSH1 0xFF MUL NOT AND SWAP1 DUP4 ISZERO ISZERO MUL OR SWAP1 SSTORE POP PUSH0 PUSH1 0x2 PUSH1 0x15 PUSH2 0x100 EXP DUP2 SLOAD DUP2 PUSH1 0xFF MUL NOT AND SWAP1 DUP4 ISZERO ISZERO MUL OR SWAP1 SSTORE POP PUSH2 0xC80 DUP1 PUSH2 0x8F PUSH0 CODECOPY PUSH0 RETURN INVALID PUSH1 0x80 PUSH1 0x40 MSTORE PUSH1 0x4 CALLDATASIZE LT PUSH2 0xA6 JUMPI PUSH0 CALLDATALOAD PUSH1 0xE0 SHR DUP1 PUSH4 0xB2FA1C9E GT PUSH2 0x63 JUMPI DUP1 PUSH4 0xB2FA1C9E EQ PUSH2 0x17E JUMPI DUP1 PUSH4 0xD337616E EQ PUSH2 0x1A8 JUMPI DUP1 PUSH4 0xD5009584 EQ PUSH2 0x1BE JUMPI DUP1 PUSH4 0xE834A834 EQ PUSH2 0x1E8 JUMPI DUP1 PUSH4 0xE97DCB62 EQ PUSH2 0x212 JUMPI DUP1 PUSH4 0xF71D96CB EQ PUSH2 0x21C JUMPI PUSH2 0xA6 JUMP JUMPDEST DUP1 PUSH4 0x200D2ED2 EQ PUSH2 0xAA JUMPI DUP1 PUSH4 0x481C6A75 EQ PUSH2 0xD4 JUMPI DUP1 PUSH4 0x5D495AEA EQ PUSH2 0xFE JUMPI DUP1 PUSH4 0x70740AC9 EQ PUSH2 0x114 JUMPI DUP1 PUSH4 0x8B5B9CCC EQ PUSH2 0x12A JUMPI DUP1 PUSH4 0x8E7EA5B2 EQ PUSH2 0x154 JUMPI JUMPDEST PUSH0 DUP1 REVERT JUMPDEST CALLVALUE DUP1 ISZERO PUSH2 0xB5 JUMPI PUSH0 DUP1 REVERT JUMPDEST POP PUSH2 0xBE PUSH2 0x258 JUMP JUMPDEST PUSH1 0x40 MLOAD PUSH2 0xCB SWAP2 SWAP1 PUSH2 0x87B JUMP JUMPDEST PUSH1 0x40 MLOAD DUP1 SWAP2 SUB SWAP1 RETURN JUMPDEST CALLVALUE DUP1 ISZERO PUSH2 0xDF JUMPI PUSH0 DUP1 REVERT JUMPDEST POP PUSH2 0xE8 PUSH2 0x26E JUMP JUMPDEST PUSH1 0x40 MLOAD PUSH2 0xF5 SWAP2 SWAP1 PUSH2 0x8D3 JUMP JUMPDEST PUSH1 0x40 MLOAD DUP1 SWAP2 SUB SWAP1 RETURN JUMPDEST CALLVALUE DUP1 ISZERO PUSH2 0x109 JUMPI PUSH0 DUP1 REVERT JUMPDEST POP PUSH2 0x112 PUSH2 0x291 JUMP JUMPDEST STOP JUMPDEST CALLVALUE DUP1 ISZERO PUSH2 0x11F JUMPI PUSH0 DUP1 REVERT JUMPDEST POP PUSH2 0x128 PUSH2 0x3BE JUMP JUMPDEST STOP JUMPDEST CALLVALUE DUP1 ISZERO PUSH2 0x135 JUMPI PUSH0 DUP1 REVERT JUMPDEST POP PUSH2 0x13E PUSH2 0x4B0 JUMP JUMPDEST PUSH1 0x40 MLOAD PUSH2 0x14B SWAP2 SWAP1 PUSH2 0x9B4 JUMP JUMPDEST PUSH1 0x40 MLOAD DUP1 SWAP2 SUB SWAP1 RETURN JUMPDEST CALLVALUE DUP1 ISZERO PUSH2 0x15F JUMPI PUSH0 DUP1 REVERT JUMPDEST POP PUSH2 0x168 PUSH2 0x53B JUMP JUMPDEST PUSH1 0x40 MLOAD PUSH2 0x175 SWAP2 SWAP1 PUSH2 0x8D3 JUMP JUMPDEST PUSH1 0x40 MLOAD DUP1 SWAP2 SUB SWAP1 RETURN JUMPDEST CALLVALUE DUP1 ISZERO PUSH2 0x189 JUMPI PUSH0 DUP1 REVERT JUMPDEST POP PUSH2 0x192 PUSH2 0x563 JUMP JUMPDEST PUSH1 0x40 MLOAD PUSH2 0x19F SWAP2 SWAP1 PUSH2 0x87B JUMP JUMPDEST PUSH1 0x40 MLOAD DUP1 SWAP2 SUB SWAP1 RETURN JUMPDEST CALLVALUE DUP1 ISZERO PUSH2 0x1B3 JUMPI PUSH0 DUP1 REVERT JUMPDEST POP PUSH2 0x1BC PUSH2 0x576 JUMP JUMPDEST STOP JUMPDEST CALLVALUE DUP1 ISZERO PUSH2 0x1C9 JUMPI PUSH0 DUP1 REVERT JUMPDEST POP PUSH2 0x1D2 PUSH2 0x6ED JUMP JUMPDEST PUSH1 0x40 MLOAD PUSH2 0x1DF SWAP2 SWAP1 PUSH2 0x8D3 JUMP JUMPDEST PUSH1 0x40 MLOAD DUP1 SWAP2 SUB SWAP1 RETURN JUMPDEST CALLVALUE DUP1 ISZERO PUSH2 0x1F3 JUMPI PUSH0 DUP1 REVERT JUMPDEST POP PUSH2 0x1FC PUSH2 0x714 JUMP JUMPDEST PUSH1 0x40 MLOAD PUSH2 0x209 SWAP2 SWAP1 PUSH2 0x87B JUMP JUMPDEST PUSH1 0x40 MLOAD DUP1 SWAP2 SUB SWAP1 RETURN JUMPDEST PUSH2 0x21A PUSH2 0x727 JUMP JUMPDEST STOP JUMPDEST CALLVALUE DUP1 ISZERO PUSH2 0x227 JUMPI PUSH0 DUP1 REVERT JUMPDEST POP PUSH2 0x242 PUSH1 0x4 DUP1 CALLDATASIZE SUB DUP2 ADD SWAP1 PUSH2 0x23D SWAP2 SWAP1 PUSH2 0xA0B JUMP JUMPDEST PUSH2 0x7B5 JUMP JUMPDEST PUSH1 0x40 MLOAD PUSH2 0x24F SWAP2 SWAP1 PUSH2 0xA45 JUMP JUMPDEST PUSH1 0x40 MLOAD DUP1 SWAP2 SUB SWAP1 RETURN JUMPDEST PUSH0 PUSH1 0x2 PUSH1 0x14 SWAP1 SLOAD SWAP1 PUSH2 0x100 EXP SWAP1 DIV PUSH1 0xFF AND SWAP1 POP SWAP1 JUMP JUMPDEST PUSH0 DUP1 SLOAD SWAP1 PUSH2 0x100 EXP SWAP1 DIV PUSH20 0xFFFFFFFFFFFFFFFFFFFFFFFFFFFFFFFFFFFFFFFF AND DUP2 JUMP JUMPDEST PUSH0 DUP1 SLOAD SWAP1 PUSH2 0x100 EXP SWAP1 DIV PUSH20 0xFFFFFFFFFFFFFFFFFFFFFFFFFFFFFFFFFFFFFFFF AND PUSH20 0xFFFFFFFFFFFFFFFFFFFFFFFFFFFFFFFFFFFFFFFF AND CALLER PUSH20 0xFFFFFFFFFFFFFFFFFFFFFFFFFFFFFFFFFFFFFFFF AND EQ PUSH2 0x2E7 JUMPI PUSH0 DUP1 REVERT JUMPDEST PUSH0 PUSH1 0x1 DUP1 SLOAD SWAP1 POP GT PUSH2 0x2F7 JUMPI PUSH0 DUP1 REVERT JUMPDEST PUSH1 0x2 PUSH1 0x14 SWAP1 SLOAD SWAP1 PUSH2 0x100 EXP SWAP1 DIV PUSH1 0xFF AND ISZERO PUSH2 0x310 JUMPI PUSH0 DUP1 REVERT JUMPDEST PUSH1 0x1 DUP1 DUP1 SLOAD SWAP1 POP PUSH2 0x31F PUSH2 0x7F0 JUMP JUMPDEST PUSH2 0x329 SWAP2 SWAP1 PUSH2 0xA8B JUMP JUMPDEST DUP2 SLOAD DUP2 LT PUSH2 0x33A JUMPI PUSH2 0x339 PUSH2 0xABB JUMP JUMPDEST JUMPDEST SWAP1 PUSH0 MSTORE PUSH1 0x20 PUSH0 KECCAK256 ADD PUSH0 SWAP1 SLOAD SWAP1 PUSH2 0x100 EXP SWAP1 DIV PUSH20 0xFFFFFFFFFFFFFFFFFFFFFFFFFFFFFFFFFFFFFFFF AND PUSH1 0x2 PUSH0 PUSH2 0x100 EXP DUP2 SLOAD DUP2 PUSH20 0xFFFFFFFFFFFFFFFFFFFFFFFFFFFFFFFFFFFFFFFF MUL NOT AND SWAP1 DUP4 PUSH20 0xFFFFFFFFFFFFFFFFFFFFFFFFFFFFFFFFFFFFFFFF AND MUL OR SWAP1 SSTORE POP PUSH1 0x1 PUSH1 0x2 PUSH1 0x14 PUSH2 0x100 EXP DUP2 SLOAD DUP2 PUSH1 0xFF MUL NOT AND SWAP1 DUP4 ISZERO ISZERO MUL OR SWAP1 SSTORE POP JUMP JUMPDEST PUSH1 0x2 PUSH0 SWAP1 SLOAD SWAP1 PUSH2 0x100 EXP SWAP1 DIV PUSH20 0xFFFFFFFFFFFFFFFFFFFFFFFFFFFFFFFFFFFFFFFF AND PUSH20 0xFFFFFFFFFFFFFFFFFFFFFFFFFFFFFFFFFFFFFFFF AND CALLER PUSH20 0xFFFFFFFFFFFFFFFFFFFFFFFFFFFFFFFFFFFFFFFF AND EQ PUSH2 0x416 JUMPI PUSH0 DUP1 REVERT JUMPDEST PUSH1 0x2 PUSH1 0x14 SWAP1 SLOAD SWAP1 PUSH2 0x100 EXP SWAP1 DIV PUSH1 0xFF AND PUSH2 0x42E JUMPI PUSH0 DUP1 REVERT JUMPDEST PUSH1 0x2 PUSH0 SWAP1 SLOAD SWAP1 PUSH2 0x100 EXP SWAP1 DIV PUSH20 0xFFFFFFFFFFFFFFFFFFFFFFFFFFFFFFFFFFFFFFFF AND PUSH20 0xFFFFFFFFFFFFFFFFFFFFFFFFFFFFFFFFFFFFFFFF AND PUSH2 0x8FC SELFBALANCE SWAP1 DUP2 ISZERO MUL SWAP1 PUSH1 0x40 MLOAD PUSH0 PUSH1 0x40 MLOAD DUP1 DUP4 SUB DUP2 DUP6 DUP9 DUP9 CALL SWAP4 POP POP POP POP ISZERO DUP1 ISZERO PUSH2 0x492 JUMPI RETURNDATASIZE PUSH0 DUP1 RETURNDATACOPY RETURNDATASIZE PUSH0 REVERT JUMPDEST POP PUSH1 0x1 PUSH1 0x2 PUSH1 0x15 PUSH2 0x100 EXP DUP2 SLOAD DUP2 PUSH1 0xFF MUL NOT AND SWAP1 DUP4 ISZERO ISZERO MUL OR SWAP1 SSTORE POP JUMP JUMPDEST PUSH1 0x60 PUSH1 0x1 DUP1 SLOAD DUP1 PUSH1 0x20 MUL PUSH1 0x20 ADD PUSH1 0x40 MLOAD SWAP1 DUP2 ADD PUSH1 0x40 MSTORE DUP1 SWAP3 SWAP2 SWAP1 DUP2 DUP2 MSTORE PUSH1 0x20 ADD DUP3 DUP1 SLOAD DUP1 ISZERO PUSH2 0x531 JUMPI PUSH1 0x20 MUL DUP3 ADD SWAP2 SWAP1 PUSH0 MSTORE PUSH1 0x20 PUSH0 KECCAK256 SWAP1 JUMPDEST DUP2 PUSH0 SWAP1 SLOAD SWAP1 PUSH2 0x100 EXP SWAP1 DIV PUSH20 0xFFFFFFFFFFFFFFFFFFFFFFFFFFFFFFFFFFFFFFFF AND PUSH20 0xFFFFFFFFFFFFFFFFFFFFFFFFFFFFFFFFFFFFFFFF AND DUP2 MSTORE PUSH1 0x20 ADD SWAP1 PUSH1 0x1 ADD SWAP1 DUP1 DUP4 GT PUSH2 0x4E8 JUMPI JUMPDEST POP POP POP POP POP SWAP1 POP SWAP1 JUMP JUMPDEST PUSH0 PUSH1 0x2 PUSH0 SWAP1 SLOAD SWAP1 PUSH2 0x100 EXP SWAP1 DIV PUSH20 0xFFFFFFFFFFFFFFFFFFFFFFFFFFFFFFFFFFFFFFFF AND SWAP1 POP SWAP1 JUMP JUMPDEST PUSH1 0x2 PUSH1 0x14 SWAP1 SLOAD SWAP1 PUSH2 0x100 EXP SWAP1 DIV PUSH1 0xFF AND DUP2 JUMP JUMPDEST PUSH0 DUP1 SLOAD SWAP1 PUSH2 0x100 EXP SWAP1 DIV PUSH20 0xFFFFFFFFFFFFFFFFFFFFFFFFFFFFFFFFFFFFFFFF AND PUSH20 0xFFFFFFFFFFFFFFFFFFFFFFFFFFFFFFFFFFFFFFFF AND CALLER PUSH20 0xFFFFFFFFFFFFFFFFFFFFFFFFFFFFFFFFFFFFFFFF AND EQ PUSH2 0x5CC JUMPI PUSH0 DUP1 REVERT JUMPDEST PUSH1 0x2 PUSH1 0x14 SWAP1 SLOAD SWAP1 PUSH2 0x100 EXP SWAP1 DIV PUSH1 0xFF AND PUSH2 0x61B JUMPI PUSH1 0x40 MLOAD PUSH32 0x8C379A000000000000000000000000000000000000000000000000000000000 DUP2 MSTORE PUSH1 0x4 ADD PUSH2 0x612 SWAP1 PUSH2 0xB68 JUMP JUMPDEST PUSH1 0x40 MLOAD DUP1 SWAP2 SUB SWAP1 REVERT JUMPDEST PUSH1 0x2 PUSH1 0x15 SWAP1 SLOAD SWAP1 PUSH2 0x100 EXP SWAP1 DIV PUSH1 0xFF AND PUSH2 0x66A JUMPI PUSH1 0x40 MLOAD PUSH32 0x8C379A000000000000000000000000000000000000000000000000000000000 DUP2 MSTORE PUSH1 0x4 ADD PUSH2 0x661 SWAP1 PUSH2 0xBD0 JUMP JUMPDEST PUSH1 0x40 MLOAD DUP1 SWAP2 SUB SWAP1 REVERT JUMPDEST PUSH1 0x1 PUSH0 PUSH2 0x677 SWAP2 SWAP1 PUSH2 0x828 JUMP JUMPDEST PUSH0 PUSH1 0x2 PUSH0 PUSH2 0x100 EXP DUP2 SLOAD DUP2 PUSH20 0xFFFFFFFFFFFFFFFFFFFFFFFFFFFFFFFFFFFFFFFF MUL NOT AND SWAP1 DUP4 PUSH20 0xFFFFFFFFFFFFFFFFFFFFFFFFFFFFFFFFFFFFFFFF AND MUL OR SWAP1 SSTORE POP PUSH0 PUSH1 0x2 PUSH1 0x14 PUSH2 0x100 EXP DUP2 SLOAD DUP2 PUSH1 0xFF MUL NOT AND SWAP1 DUP4 ISZERO ISZERO MUL OR SWAP1 SSTORE POP PUSH0 PUSH1 0x2 PUSH1 0x15 PUSH2 0x100 EXP DUP2 SLOAD DUP2 PUSH1 0xFF MUL NOT AND SWAP1 DUP4 ISZERO ISZERO MUL OR SWAP1 SSTORE POP JUMP JUMPDEST PUSH0 DUP1 PUSH0 SWAP1 SLOAD SWAP1 PUSH2 0x100 EXP SWAP1 DIV PUSH20 0xFFFFFFFFFFFFFFFFFFFFFFFFFFFFFFFFFFFFFFFF AND SWAP1 POP SWAP1 JUMP JUMPDEST PUSH1 0x2 PUSH1 0x15 SWAP1 SLOAD SWAP1 PUSH2 0x100 EXP SWAP1 DIV PUSH1 0xFF AND DUP2 JUMP JUMPDEST PUSH7 0x38D7EA4C68000 CALLVALUE LT ISZERO PUSH2 0x73A JUMPI PUSH0 DUP1 REVERT JUMPDEST PUSH1 0x2 PUSH1 0x14 SWAP1 SLOAD SWAP1 PUSH2 0x100 EXP SWAP1 DIV PUSH1 0xFF AND ISZERO PUSH2 0x753 JUMPI PUSH0 DUP1 REVERT JUMPDEST PUSH1 0x1 CALLER SWAP1 DUP1 PUSH1 0x1 DUP2 SLOAD ADD DUP1 DUP3 SSTORE DUP1 SWAP2 POP POP PUSH1 0x1 SWAP1 SUB SWAP1 PUSH0 MSTORE PUSH1 0x20 PUSH0 KECCAK256 ADD PUSH0 SWAP1 SWAP2 SWAP1 SWAP2 SWAP1 SWAP2 PUSH2 0x100 EXP DUP2 SLOAD DUP2 PUSH20 0xFFFFFFFFFFFFFFFFFFFFFFFFFFFFFFFFFFFFFFFF MUL NOT AND SWAP1 DUP4 PUSH20 0xFFFFFFFFFFFFFFFFFFFFFFFFFFFFFFFFFFFFFFFF AND MUL OR SWAP1 SSTORE POP JUMP JUMPDEST PUSH1 0x1 DUP2 DUP2 SLOAD DUP2 LT PUSH2 0x7C4 JUMPI PUSH0 DUP1 REVERT JUMPDEST SWAP1 PUSH0 MSTORE PUSH1 0x20 PUSH0 KECCAK256 ADD PUSH0 SWAP2 POP SLOAD SWAP1 PUSH2 0x100 EXP SWAP1 DIV PUSH20 0xFFFFFFFFFFFFFFFFFFFFFFFFFFFFFFFFFFFFFFFF AND DUP2 JUMP JUMPDEST PUSH0 PREVRANDAO TIMESTAMP PUSH1 0x1 DUP1 SLOAD SWAP1 POP PUSH1 0x40 MLOAD PUSH1 0x20 ADD PUSH2 0x80B SWAP4 SWAP3 SWAP2 SWAP1 PUSH2 0xC0E JUMP JUMPDEST PUSH1 0x40 MLOAD PUSH1 0x20 DUP2 DUP4 SUB SUB DUP2 MSTORE SWAP1 PUSH1 0x40 MSTORE DUP1 MLOAD SWAP1 PUSH1 0x20 ADD KECCAK256 PUSH0 SHR SWAP1 POP SWAP1 JUMP JUMPDEST POP DUP1 SLOAD PUSH0 DUP3 SSTORE SWAP1 PUSH0 MSTORE PUSH1 0x20 PUSH0 KECCAK256 SWAP1 DUP2 ADD SWAP1 PUSH2 0x843 SWAP2 SWAP1 PUSH2 0x846 JUMP JUMPDEST POP JUMP JUMPDEST JUMPDEST DUP1 DUP3 GT ISZERO PUSH2 0x85D JUMPI PUSH0 DUP2 PUSH0 SWAP1 SSTORE POP PUSH1 0x1 ADD PUSH2 0x847 JUMP JUMPDEST POP SWAP1 JUMP JUMPDEST PUSH0 DUP2 ISZERO ISZERO SWAP1 POP SWAP2 SWAP1 POP JUMP JUMPDEST PUSH2 0x875 DUP2 PUSH2 0x861 JUMP JUMPDEST DUP3 MSTORE POP POP JUMP JUMPDEST PUSH0 PUSH1 0x20 DUP3 ADD SWAP1 POP PUSH2 0x88E PUSH0 DUP4 ADD DUP5 PUSH2 0x86C JUMP JUMPDEST SWAP3 SWAP2 POP POP JUMP JUMPDEST PUSH0 PUSH20 0xFFFFFFFFFFFFFFFFFFFFFFFFFFFFFFFFFFFFFFFF DUP3 AND SWAP1 POP SWAP2 SWAP1 POP JUMP JUMPDEST PUSH0 PUSH2 0x8BD DUP3 PUSH2 0x894 JUMP JUMPDEST SWAP1 POP SWAP2 SWAP1 POP JUMP JUMPDEST PUSH2 0x8CD DUP2 PUSH2 0x8B3 JUMP JUMPDEST DUP3 MSTORE POP POP JUMP JUMPDEST PUSH0 PUSH1 0x20 DUP3 ADD SWAP1 POP PUSH2 0x8E6 PUSH0 DUP4 ADD DUP5 PUSH2 0x8C4 JUMP JUMPDEST SWAP3 SWAP2 POP POP JUMP JUMPDEST PUSH0 DUP2 MLOAD SWAP1 POP SWAP2 SWAP1 POP JUMP JUMPDEST PUSH0 DUP3 DUP3 MSTORE PUSH1 0x20 DUP3 ADD SWAP1 POP SWAP3 SWAP2 POP POP JUMP JUMPDEST PUSH0 DUP2 SWAP1 POP PUSH1 0x20 DUP3 ADD SWAP1 POP SWAP2 SWAP1 POP JUMP JUMPDEST PUSH0 PUSH2 0x91F DUP3 PUSH2 0x894 JUMP JUMPDEST SWAP1 POP SWAP2 SWAP1 POP JUMP JUMPDEST PUSH2 0x92F DUP2 PUSH2 0x915 JUMP JUMPDEST DUP3 MSTORE POP POP JUMP JUMPDEST PUSH0 PUSH2 0x940 DUP4 DUP4 PUSH2 0x926 JUMP JUMPDEST PUSH1 0x20 DUP4 ADD SWAP1 POP SWAP3 SWAP2 POP POP JUMP JUMPDEST PUSH0 PUSH1 0x20 DUP3 ADD SWAP1 POP SWAP2 SWAP1 POP JUMP JUMPDEST PUSH0 PUSH2 0x962 DUP3 PUSH2 0x8EC JUMP JUMPDEST PUSH2 0x96C DUP2 DUP6 PUSH2 0x8F6 JUMP JUMPDEST SWAP4 POP PUSH2 0x977 DUP4 PUSH2 0x906 JUMP JUMPDEST DUP1 PUSH0 JUMPDEST DUP4 DUP2 LT ISZERO PUSH2 0x9A7 JUMPI DUP2 MLOAD PUSH2 0x98E DUP9 DUP3 PUSH2 0x935 JUMP JUMPDEST SWAP8 POP PUSH2 0x999 DUP4 PUSH2 0x94C JUMP JUMPDEST SWAP3 POP POP PUSH1 0x1 DUP2 ADD SWAP1 POP PUSH2 0x97A JUMP JUMPDEST POP DUP6 SWAP4 POP POP POP POP SWAP3 SWAP2 POP POP JUMP JUMPDEST PUSH0 PUSH1 0x20 DUP3 ADD SWAP1 POP DUP2 DUP2 SUB PUSH0 DUP4 ADD MSTORE PUSH2 0x9CC DUP2 DUP5 PUSH2 0x958 JUMP JUMPDEST SWAP1 POP SWAP3 SWAP2 POP POP JUMP JUMPDEST PUSH0 DUP1 REVERT JUMPDEST PUSH0 DUP2 SWAP1 POP SWAP2 SWAP1 POP JUMP JUMPDEST PUSH2 0x9EA DUP2 PUSH2 0x9D8 JUMP JUMPDEST DUP2 EQ PUSH2 0x9F4 JUMPI PUSH0 DUP1 REVERT JUMPDEST POP JUMP JUMPDEST PUSH0 DUP2 CALLDATALOAD SWAP1 POP PUSH2 0xA05 DUP2 PUSH2 0x9E1 JUMP JUMPDEST SWAP3 SWAP2 POP POP JUMP JUMPDEST PUSH0 PUSH1 0x20 DUP3 DUP5 SUB SLT ISZERO PUSH2 0xA20 JUMPI PUSH2 0xA1F PUSH2 0x9D4 JUMP JUMPDEST JUMPDEST PUSH0 PUSH2 0xA2D DUP5 DUP3 DUP6 ADD PUSH2 0x9F7 JUMP JUMPDEST SWAP2 POP POP SWAP3 SWAP2 POP POP JUMP JUMPDEST PUSH2 0xA3F DUP2 PUSH2 0x915 JUMP JUMPDEST DUP3 MSTORE POP POP JUMP JUMPDEST PUSH0 PUSH1 0x20 DUP3 ADD SWAP1 POP PUSH2 0xA58 PUSH0 DUP4 ADD DUP5 PUSH2 0xA36 JUMP JUMPDEST SWAP3 SWAP2 POP POP JUMP JUMPDEST PUSH32 0x4E487B7100000000000000000000000000000000000000000000000000000000 PUSH0 MSTORE PUSH1 0x12 PUSH1 0x4 MSTORE PUSH1 0x24 PUSH0 REVERT JUMPDEST PUSH0 PUSH2 0xA95 DUP3 PUSH2 0x9D8 JUMP JUMPDEST SWAP2 POP PUSH2 0xAA0 DUP4 PUSH2 0x9D8 JUMP JUMPDEST SWAP3 POP DUP3 PUSH2 0xAB0 JUMPI PUSH2 0xAAF PUSH2 0xA5E JUMP JUMPDEST JUMPDEST DUP3 DUP3 MOD SWAP1 POP SWAP3 SWAP2 POP POP JUMP JUMPDEST PUSH32 0x4E487B7100000000000000000000000000000000000000000000000000000000 PUSH0 MSTORE PUSH1 0x32 PUSH1 0x4 MSTORE PUSH1 0x24 PUSH0 REVERT JUMPDEST PUSH0 DUP3 DUP3 MSTORE PUSH1 0x20 DUP3 ADD SWAP1 POP SWAP3 SWAP2 POP POP JUMP JUMPDEST PUSH32 0x5468652063757272656E74206C6F747465727920726F756E64206973206E6F74 PUSH0 DUP3 ADD MSTORE PUSH32 0x20636F6D706C6574650000000000000000000000000000000000000000000000 PUSH1 0x20 DUP3 ADD MSTORE POP JUMP JUMPDEST PUSH0 PUSH2 0xB52 PUSH1 0x29 DUP4 PUSH2 0xAE8 JUMP JUMPDEST SWAP2 POP PUSH2 0xB5D DUP3 PUSH2 0xAF8 JUMP JUMPDEST PUSH1 0x40 DUP3 ADD SWAP1 POP SWAP2 SWAP1 POP JUMP JUMPDEST PUSH0 PUSH1 0x20 DUP3 ADD SWAP1 POP DUP2 DUP2 SUB PUSH0 DUP4 ADD MSTORE PUSH2 0xB7F DUP2 PUSH2 0xB46 JUMP JUMPDEST SWAP1 POP SWAP2 SWAP1 POP JUMP JUMPDEST PUSH32 0x5072697A6520686173206E6F74206265656E20636C61696D6564207965740000 PUSH0 DUP3 ADD MSTORE POP JUMP JUMPDEST PUSH0 PUSH2 0xBBA PUSH1 0x1E DUP4 PUSH2 0xAE8 JUMP JUMPDEST SWAP2 POP PUSH2 0xBC5 DUP3 PUSH2 0xB86 JUMP JUMPDEST PUSH1 0x20 DUP3 ADD SWAP1 POP SWAP2 SWAP1 POP JUMP JUMPDEST PUSH0 PUSH1 0x20 DUP3 ADD SWAP1 POP DUP2 DUP2 SUB PUSH0 DUP4 ADD MSTORE PUSH2 0xBE7 DUP2 PUSH2 0xBAE JUMP JUMPDEST SWAP1 POP SWAP2 SWAP1 POP JUMP JUMPDEST PUSH0 DUP2 SWAP1 POP SWAP2 SWAP1 POP JUMP JUMPDEST PUSH2 0xC08 PUSH2 0xC03 DUP3 PUSH2 0x9D8 JUMP JUMPDEST PUSH2 0xBEE JUMP JUMPDEST DUP3 MSTORE POP POP JUMP JUMPDEST PUSH0 PUSH2 0xC19 DUP3 DUP7 PUSH2 0xBF7 JUMP JUMPDEST PUSH1 0x20 DUP3 ADD SWAP2 POP PUSH2 0xC29 DUP3 DUP6 PUSH2 0xBF7 JUMP JUMPDEST PUSH1 0x20 DUP3 ADD SWAP2 POP PUSH2 0xC39 DUP3 DUP5 PUSH2 0xBF7 JUMP JUMPDEST PUSH1 0x20 DUP3 ADD SWAP2 POP DUP2 SWAP1 POP SWAP5 SWAP4 POP POP POP POP JUMP INVALID LOG2 PUSH5 0x6970667358 0x22 SLT KECCAK256 0xC3 0xAC KECCAK256 SELFBALANCE ADDRESS DUP14 PUSH26 0xD83BEDD4C869202D3A28BF52B668DEE8ACD99DF7B39FF826F664 PUSH20 0x6F6C634300081A00330000000000000000000000 "
				},
				"gasEstimates": {
					"creation": {
						"codeDepositCost": "640000",
						"executionCost": "73565",
						"totalCost": "713565"
					},
					"external": {
						"claimPrize()": "infinite",
						"claimed()": "2583",
						"enter()": "51013",
						"getManager()": "2559",
						"getPlayers()": "infinite",
						"getWinner()": "2626",
						"isComplete()": "2517",
						"manager()": "2528",
						"pickWinner()": "infinite",
						"players(uint256)": "5054",
						"resetLottery()": "infinite",
						"status()": "2525"
					},
					"internal": {
						"randomNumber()": "infinite"
					}
				},
				"methodIdentifiers": {
					"claimPrize()": "70740ac9",
					"claimed()": "e834a834",
					"enter()": "e97dcb62",
					"getManager()": "d5009584",
					"getPlayers()": "8b5b9ccc",
					"getWinner()": "8e7ea5b2",
					"isComplete()": "b2fa1c9e",
					"manager()": "481c6a75",
					"pickWinner()": "5d495aea",
					"players(uint256)": "f71d96cb",
					"resetLottery()": "d337616e",
					"status()": "200d2ed2"
				}
			},
			"storageLayout": {
				"storage": [
					{
						"astId": 3,
						"contract": "contracts/Lottery.sol:Lottery",
						"label": "manager",
						"offset": 0,
						"slot": "0",
						"type": "t_address"
					},
					{
						"astId": 6,
						"contract": "contracts/Lottery.sol:Lottery",
						"label": "players",
						"offset": 0,
						"slot": "1",
						"type": "t_array(t_address_payable)dyn_storage"
					},
					{
						"astId": 8,
						"contract": "contracts/Lottery.sol:Lottery",
						"label": "winner",
						"offset": 0,
						"slot": "2",
						"type": "t_address_payable"
					},
					{
						"astId": 10,
						"contract": "contracts/Lottery.sol:Lottery",
						"label": "isComplete",
						"offset": 20,
						"slot": "2",
						"type": "t_bool"
					},
					{
						"astId": 12,
						"contract": "contracts/Lottery.sol:Lottery",
						"label": "claimed",
						"offset": 21,
						"slot": "2",
						"type": "t_bool"
					}
				],
				"types": {
					"t_address": {
						"encoding": "inplace",
						"label": "address",
						"numberOfBytes": "20"
					},
					"t_address_payable": {
						"encoding": "inplace",
						"label": "address payable",
						"numberOfBytes": "20"
					},
					"t_array(t_address_payable)dyn_storage": {
						"base": "t_address_payable",
						"encoding": "dynamic_array",
						"label": "address payable[]",
						"numberOfBytes": "32"
					},
					"t_bool": {
						"encoding": "inplace",
						"label": "bool",
						"numberOfBytes": "1"
					}
				}
			},
			"userdoc": {
				"kind": "user",
				"methods": {},
				"version": 1
			}
		}
	}
}